:020000040000fa
:080000001011040000000000d3
:020000040000fa
:102220008f9e20000eff27000e0188000000000096
:10223000000020000000e000020032000001200049
:10224000200288000c000700808d21000100200082
:102250000f000700000020000000e0000200320034
:102260000000020000000000b8180200000000009a
:102270000040da000000fe00200020000000e00026
:1022800002003200100020009001880000000600cb
:10229000a1028800800078000000eb001a003700df
:1022a000e280400054a0b4009101ba00e2804000f6
:1022b00054a0b4009102ba00e280400054a0b400df
:1022c0000002eb00472bde00f507b200a6018800f4
:1022d000602ce10008003a000049eb000201e80030
:1022e000020039003420ec0002f0a0008301e90074
:1022f000f9ff3e00040037006128e10001003200d0
:102300000082eb00040007001101ba000200e000a7
:10231000e3ff3a000000060004d0a300e20f4900ea
:102320001c003900810278003549ba000201e8003a
:10233000020039003420ec0002f0a0008301e90023
:102340000f0032002549ba000201e80002003900fe
:102350003420ec0002f0a0008301e9000800320004
:102360000400e0000600320015c9ba000201e800ce
:10237000020039003420ec0002f0a0008301e900e3
:102380008180e80054a0b4000300e000e2ff3a00be
:10239000000006009102ba00055978008301e900a7
:1023a000f7ff3200c82ade00055978008301e900f2
:1023b000f3ff32000400e000f1ff320011d9ba004f
:1023c000eeff37003212040000000000ee1104009e
:0c23d00000000000541204000000000097
:020000040000fa
:020000040002f8
:04aff400031c00003a
:020000040000fa
:020000040002f8
:04aff8000f890000bd
:020000040000fa
:020000040002f8
:04affc007f3e000094
:020000040000fa
:102000001011040000000000e618040000000000a9
:10201000e618040000000000e618040000000000bc
:10202000e618040000000000e618040000000000ac
:10203000e618040000000000e6180400000000009c
:10204000e618040000000000e6180400000000008c
:10205000e618040000000000e6180400000000007c
:10206000e618040000000000e6180400000000006c
:10207000e618040000000000e6180400000000005c
:10208000e618040000000000e6180400000000004c
:10209000e618040000000000e6180400000000003c
:1020a000e618040000000000e6180400000000002c
:1020b000e618040000000000e6180400000000001c
:1020c000e618040000000000e6180400000000000c
:1020d000e618040000000000e618040000000000fc
:1020e000e618040000000000e618040000000000ec
:1020f000e618040000000000e618040000000000dc
:10210000e618040000000000e618040000000000cb
:10211000e618040000000000e618040000000000bb
:10212000e618040000000000e618040000000000ab
:10213000e618040000000000e6180400000000009b
:10214000e618040000000000e6180400000000008b
:10215000e618040000000000e6180400000000007b
:10216000e618040000000000e6180400000000006b
:10217000e618040000000000e6180400000000005b
:10218000e618040000000000e6180400000000004b
:10219000e618040000000000e6180400000000003b
:1021a000e618040000000000e6180400000000002b
:1021b000e618040000000000e6180400000000001b
:1021c000e618040000000000e6180400000000000b
:1021d000e618040000000000e618040000000000fb
:1021e000e618040000000000e618040000000000eb
:1021f000e618040000000000e618040000000000db
:10220000e618040000000000e618040000000000ca
:10221000e618040000000000e618040000000000ba
:020000040000fa
:1000080004100000081000000c1000001010000080
:10001800141000000c1100000c1100000c1100005d
:10002800181000001c100000201000002410000010
:100038000c110000281000002c10000030100000e7
:1000480034100000381000003c1000004010000080
:1000580044100000481000000c1100000c110000b2
:100068004c10000050100000541000005810000000
:100078005c1000000c11000060100000641000000b
:100088000c110000681000006c10000070100000d7
:1000980074100000781000007c1000008010000030
:1000a80084100000881000000c1100000c110000e2
:1000b8000c1100008c10000090100000941000003b
:1000c800981000009c100000a0100000a410000070
:1000d800a8100000ac1000000c1100000c1100006a
:1000e8000c110000b0100000b41000000c1100004a
:1000f8000c110000b8100000bc1000000c1100002a
:100108000c1100000c1100000c1100000c11000073
:100118000c1100000c110000c01000000c110000b0
:100128000c110000c4100000c8100000cc10000022
:100138000c1100000c1100000c1100000c11000043
:10014800d01000000c1100000c1100000c11000070
:100158000c110000d41000000c1100000c1100005c
:100168000c110000d8100000dc100000e0100000a6
:10017800e4100000e8100000ec100000f01000008f
:10018800f4100000f8100000fc100000001100003e
:1001980004110000081100000c1100000c110000ef
:1001a8000c1100000c1100000c1100000c110000d3
:1001b8000c1100000c1100000c1100000c110000c3
:1001c8000c1100000c1100000c1100000c110000b3
:1001d8000c1100000c1100000c1100000c110000a3
:1001e8000c1100000c1100000c1100000c11000093
:0801f8000c1100000c110000c5
:020000040000fa
:1023dc000400fa00000f7800110798001e0090000e
:1023ec000000e0000d0032001e00780010007800a4
:1023fc009e00780091007800110178009e00780012
:10240c00e14090008180fb00130020008118dd006a
:10241c0082807000010878000d0037001e007800e3
:10242c00100078009e00780091007800110178006f
:10243c009e007800e14090008180fb00130020009a
:10244c008118dd008180ea008100610001087800bc
:10245c000080fa00000006000200fa00000f78006d
:10246c001e00780010007800900078001e007800a4
:10247c00604090000080fb00120020000010dd0086
:10248c000080600000f0a7000000ea000000ea00f5
:10249c004f00de000080fa00000006000200fa0087
:1024ac00000f78001e007800400090004019880052
:1024bc002023a800000000000019800061006000cb
:1024cc000000e000fcff3200001880000080fa00e1
:1024dc00000006000200fa00406d2000801f78000a
:1024ec00470120000043eb008082eb0054c0b30096
:1024fc008001eb00822d2000a12d20000083200004
:10250c00080107008f87e900806d2000801f78008c
:10251c009701200086c0b3008082eb0044c0b3005a
:10252c008001eb00822d2000a12d20006084200072
:10253c00fc0007008f87e900a06c2000801f78004a
:10254c00a70020000043eb008082eb0044c0b300e6
:10255c008001eb00822e2000a12e2000c0852000df
:10256c00f00007008f87e900006d2000801f7800c5
:10257c001701200086c0b3008082eb0054c0b3006a
:10258c008001eb00822e2000a12e2000208720004d
:10259c00e40007008f87e900c06d2000801f7800e1
:1025ac00d701200086c0b300f5002000f4c0b300b2
:1025bc00234e2000822c2000a12c2000808820009b
:1025cc00d80007008f87e900006d2000801f78007d
:1025dc00070120000043eb008082eb0034c0b30005
:1025ec008001eb00822e2000a12e2000e08920002b
:1025fc00cc0007008f87e900206c2000801f78003a
:10260c00270020000043eb008082eb0084c0b30065
:10261c008001eb00822d2000a12d2000408b20009a
:10262c00c00007008f87e900c06c2000801f780075
:10263c00c70020000043eb008082eb00b4c0b30065
:10264c008001eb00822d2000a12d2000a08c200009
:10265c00b40007008f87e900406c2000801f7800d1
:10266c00470020000043eb008082eb0094c0b300d5
:10267c008001eb00822d2000a12d2000008e200077
:10268c00a80007008f87e900206c2000801f7800cd
:10269c003700200086c0b3008082eb00a4c0b300da
:1026ac008001eb00822d2000a12d2000608f2000e6
:1026bc009c0007008f87e900a06c2000801f780029
:1026cc00b700200086c0b3008082eb000042eb0014
:1026dc008001eb00822d2000a12d2000c090200055
:1026ec00900007008f87e900806d2000801f780024
:1026fc00870120000043eb008082eb0014c0b30084
:10270c008001eb00822d2000a12d200020922000c2
:10271c00840007008f87e900606d2000801f78001f
:10272c007701200086c0b3008082eb0024c0b30088
:10273c008001eb00822d2000a12d20008093200031
:10274c00780007008f87e900606d2000801f7800fb
:10275c00670120000043eb008082eb0034c0b30023
:10276c008001eb00822d2000a12d2000e0942000a0
:10277c006c0007008f87e900006c2000801f780038
:10278c008003eb000043eb008002eb000042eb0007
:10279c00234e2000822c2000a12c2000209d200004
:1027ac00600007008f87e900006c2000801f780014
:1027bc001700200086c0b3001500200014c0b30021
:1027cc00234e2000822c2000a12c2000c09b200036
:1027dc00540007008f87e900c06c2000801f780030
:1027ec00d700200086c0b3002500200024c0b30011
:1027fc00234e2000822c2000a12c2000609a200067
:10280c00480007008f87e9000000eb00801f78006c
:10281c008083eb000043eb003500200034c0b30094
:10282c00234e2000822c2000a12c20000099200097
:10283c003c0007008f87e900c06d2000801f7800e6
:10284c00c70120000043eb004500200044c0b3004a
:10285c00234e2000822c2000a12c2000a0972000c9
:10286c00300007008f87e900206d2000801f780062
:10287c00270120000043eb005500200054c0b3009a
:10288c00234e2000822c2000a12c200040962000fa
:10289c00240007008f87e9000000eb00000f780090
:1028ac00070037001e0078007600b9008000780021
:1028bc000083200000804000460007001e0fe80047
:1028cc001e007800ed0f5000f6ff36000000eb0004
:1028dc00000f7800070037001e0078007600b90062
:1028ec008000780040962000008040009500070092
:1028fc001e0fe8001e007800e50f5000f6ff3600b2
:10290c00002e2000001988002223ef0000c42000b4
:10291c00201988002823ef0021e3a8000080fa008a
:10292c00000006001000fa00000f78001107980054
:10293c002207980033079800044f98005507980019
:10294c00464f9800770798001e0078009e00900074
:10295c00010878001e007800ae009000110098006d
:10296c001e007800be009000210098001e00780028
:10297c008e489000614098001e007800de009000a8
:10298c00410098001e007800ce4890002148980025
:10299c00fe0090001e007800610098001e00780078
:1029ac00ceb89700710098001e0078008000eb00f4
:1029bc00010898001e0078008000eb0011089800b8
:1029cc001e0078008000eb00210898000080fa00bf
:1029dc00000006000200fa00000f78001e007800cc
:1029ec00200090000000e0000d0032001e00780076
:1029fc00200090009e007800a1009000110178004a
:102a0c009e007800e14090008180fb0013002000c4
:102a1c008118dd008180ea008100610001087800e6
:102a2c001e007800100090009e007800910090002d
:102a3c00110178009e007800e14090008180fb003d
:102a4c00130020008118dd008280700001087800de
:102a5c001e0078008000eb00110898001e00780022
:102a6c0021232100210898000080fa0000000600b4
:102a7c000200fa00000f78001e0078002000900081
:102a8c000000e0000d0032001e00780020009000d5
:102a9c009e007800a1009000110178009e00780043
:102aac00e14090008180fb00130020008118dd00c4
:102abc008180ea0081006100010878001e00780026
:102acc00100078009e0078009100780011017800c9
:102adc009e007800e14090008180fb0013002000f4
:102aec008118dd008180ea00810061000108780016
:102afc001e007800100090009e007800910090005d
:102b0c00110178009e007800e14090008180fb006c
:102b1c00130020008118dd008180ea008100610033
:102b2c00010878001e007800e11e210011089800b1
:102b3c001e00780021232100210898000080fa0053
:102b4c00000006000200fa00000f78001e0078005a
:102b5c00200090000000e0001f0032001e007800f2
:102b6c00100090009e0078009100900011017800f8
:102b7c009e007800e14090008180fb001300200053
:102b8c008118dd0082807000010878001e0078003a
:102b9c00200090009e007800a100900011017800a8
:102bac009e007800e14090008180fb001300200023
:102bbc008118dd0082807000010878001e0078000a
:102bcc008000eb00110898001e00780041252100c0
:102bdc002108980001003700000000000080fa0076
:102bec00000006000200fa00000f78001e007800ba
:102bfc0090089000e01e2100808f50000c003a00dd
:102c0c001e007800100078009e007800910078007b
:102c1c00110178009e007800e14090008180fb005b
:102c2c00130020008118dd008280700001087800fc
:102c3c000080fa00000006000200fa00000f780085
:102c4c001e00780090089000e01e2100808f50003c
:102c5c000d003a001e007800100078009e007800ed
:102c6c0091007800110178009e007800e1409000fe
:102c7c008180fb00130020008118dd008180ea00b8
:102c8c0081006100010878000080fa000000060055
:102c9c000200fa00000f78001e00780090089000e7
:102cac00e01e2100808f50000c003a001e007800be
:102cbc00100078009e0078009100780011017800d7
:102ccc009e007800e14090008180fb001300200002
:102cdc008118dd0081006900010878000080fa008d
:102cec00000006000400fa00000f7800110798009d
:102cfc001e007800100890000000e0000500320073
:102d0c001e007800100990009e0090001e007800b4
:102d1c00020001000080fa00000006000200fa0028
:102d2c00000f78001e007800200890000000e000e2
:102d3c00050032001e007800a00890001e007800ec
:102d4c0001000100010037000080eb000080fa0058
:102d5c00000006000000fa0074c0b300634e2000af
:102d6c00822d2000a12d20000080200020000700d3
:102d7c000042eb00a34e2000822e2000a12e20004a
:102d8c00808020001a00070014c0b300a34e20005e
:102d9c00822e2000a12e20000081200014000700ac
:102dac00f4c0b300434e2000022d2000212d200042
:102dbc0080812000ad000700c4c0b300434e20004a
:102dcc00022d2000212d200000822000a7000700ea
:102ddc00c4c0b300234e2000822c2000a12c200064
:102dec0080822000a10007000080fa00000006008d
:102dfc000a00fa00000f78001107980022079800cb
:102e0c0033079800044f98001e0078009e00900035
:102e1c00010878001e007800ae00900011009800a8
:102e2c001e007800be009000210098001e00780063
:102e3c008e489000614098001e00780020009000a1
:102e4c009e007800a1009000110178009e0078008f
:102e5c00e14090008180fb00130020008118dd0010
:102e6c008180ea0081006100010878001e00780072
:102e7c00100078009e007800910078001101780015
:102e8c009e007800e14090008180fb001300200040
:102e9c008118dd008180ea00810061000108780062
:102eac001e007800100090009e00780091009000a9
:102ebc00110178009e007800e14090008180fb00b9
:102ecc00130020008118dd008180ea008100610080
:102edc00010878000080fa00000006000200fa00e9
:102eec00000f78001e007800100078009e0078001b
:102efc0091007800110178009e007800e14090006c
:102f0c008180fb00130020008118dd00828070009e
:102f1c00010878000080fa00000006000200fa00a8
:102f2c00000f78001e007800100078009e007800da
:102f3c0091007800110178009e007800e14090002b
:102f4c008180fb00130020008118dd008180ea00e5
:102f5c0081006100010878000080fa000000060082
:102f6c000200fa00000f78001e00780010007800b4
:102f7c009e00780091007800110178009e00780086
:102f8c00e14090008180fb00130020008118dd00df
:102f9c0081006900010878000080fa00000006003a
:102fac000400fa00000f7800110798001e00900032
:102fbc000000e0000d0032001e00780010007800c8
:102fcc009e00780091007800110178009e00780036
:102fdc00e14090008180fb00130020008118dd008f
:102fec0082807000010878000d0037001e00780008
:102ffc00100078009e007800910078001101780094
:10300c009e007800e14090008180fb0013002000be
:10301c008118dd008180ea008100610001087800e0
:10302c000080fa00000006000200fa00000f780091
:10303c001e00780010007800900078001e007800c8
:10304c00604090000080fb00120020000010dd00aa
:10305c000080600000f0a7000000ea000000ea0019
:10306c004f00de000080fa00000006000a00fa00a3
:10307c00000f78001107980022079800330798007a
:10308c00044f98001e0078009e0090000108780004
:10309c001e007800ae009000110098001e00780011
:1030ac00be009000210098001e0078008e48900011
:1030bc00614098001e007800200090009e0078006f
:1030cc00a1009000110178009e007800e140900072
:1030dc008180fb00130020008118dd008180ea0054
:1030ec0081006100010878001e007800100090003b
:1030fc009e00780091009000110178009e007800ed
:10310c00e14090008180fb00130020008118dd005d
:10311c0082807000010878000080fa000000060030
:10312c000200fa00000f78001e00780010007800f2
:10313c00900078001e007800604090000080fb003a
:10314c00120020000010dd000080600000f0a700dd
:10315c000000ea000000ea004f00de000080fa00e8
:10316c00000006000000fa0000102000203a880041
:10317c00f8fe0700d7fc0700a08c200015fe070006
:10318c000100370000000000a08c2000e3fe0700c7
:10319c000000e000fbff3a000081200070ff0700f8
:0431ac00f9ff3700f0
:020000040000fa
:1031b000000800003000000080000000300800001f
:0c31c000b80100008000000000000000ca
:020000040000fa
:0831cc000040da000000fe00e3
:00000001FF
