:020000040000fa
:080000001011040000000000d3
:020000040000fa
:10222000efbc20000eff27000e0188000000000018
:10223000000020000000e000020032000001200049
:10224000200288000c00070000632300010020002a
:102250000f000700000020000000e0000200320034
:102260000000020000000000ec3502000000000049
:102270000040da000000fe00200020000000e00026
:1022800002003200100020009001880000000600cb
:10229000a1028800800078000000eb001a003700df
:1022a000e280400054a0b4009101ba00e2804000f6
:1022b00054a0b4009102ba00e280400054a0b400df
:1022c0000002eb00472bde00f507b200a6018800f4
:1022d000602ce10008003a000049eb000201e80030
:1022e000020039003420ec0002f0a0008301e90074
:1022f000f9ff3e00040037006128e10001003200d0
:102300000082eb00040007001101ba000200e000a7
:10231000e3ff3a000000060004d0a300e20f4900ea
:102320001c003900810278003549ba000201e8003a
:10233000020039003420ec0002f0a0008301e90023
:102340000f0032002549ba000201e80002003900fe
:102350003420ec0002f0a0008301e9000800320004
:102360000400e0000600320015c9ba000201e800ce
:10237000020039003420ec0002f0a0008301e900e3
:102380008180e80054a0b4000300e000e2ff3a00be
:10239000000006009102ba00055978008301e900a7
:1023a000f7ff3200c82ade00055978008301e900f2
:1023b000f3ff32000400e000f1ff320011d9ba004f
:1023c000eeff3700fc2c040000000000b82c0400d5
:1023d000000000001e2d0400000000002215040073
:1023e0000000000064150400000000004615040011
:1023f00000000000541604000000000003f0a200da
:10240000889fbe008a9fbe008c1f7800f7000700df
:10241000fe0033006450e1004f0032006420e10010
:102420005200320003826c0007003b000905d00017
:102430000306d000820f54000c065d000200390034
:102440000200320089017800030678008582550079
:1024500004003d000003fd008103fd008502ea0049
:102460008b854200840f720002003b006000100068
:10247000e08018006011b8000005eb007a28e10048
:102480000a00390006007800c75ddd00f707b200da
:10249000878075002d003700828171000a01780065
:1024a000610560008180d1000080d3008502e900d1
:1024b000f9ff3b00060440008784480002003b000f
:1024c00060041400e0841c000988a30007003200a7
:1024d0008a81710082817100610164008904d100e8
:1024e0000884d3008b05e800170037000978a300a3
:1024f00013003a000b00e000130034008b05e900e4
:102500000804440089844c000a4474000978a3003c
:102510000d003a000b00e000070034008b05e900d5
:102520000804440089844c0001003a000b0020009c
:102530000978a300f7ff32000001eb00020037002a
:10254000828171000a0178006d0007000cf0a7007d
:1025500001f0a000b60037006420e10002003a005c
:10256000838f6c00b60033000801be000200be007d
:10257000af003700889fbe008a9fbe008c1f780086
:102580009a000700a100330003866c006450e1004c
:102590002e0032006420e100330032006150e1007f
:1025a0002f0032006120e1003100320085855500a6
:1025b000eb07b000090020000804200005003700e8
:1025c0000804440089844c000a00310006034300db
:1025d00087834b000001530081815b00f8ff3300cb
:1025e0000203be000800a0000804440089844c00d7
:1025f000f6ff3900c639dd008301730001003200a7
:10260000130020008904d1000884d3000998a30096
:10261000050032000800a7000300a0008904d100d3
:102620000884d3008b05e8008904d1000884d30016
:102630000001eb000281d2003100070001f0a1008f
:102640000cf0a70001f0a000790037006420e10041
:102650007b0032000801be000200be00f7ff370019
:102660006120e100760032006000b800f3ff37001f
:102670000000200001f82700f0ff370014002000c0
:10268000a6003700f4ff2f00a40037000001be00b1
:10269000410007000470a70003f0a10003f8a300a5
:1026a00013003a006509b10010003200090035003e
:1026b0006928e10002003500010028000000050043
:1026c00000004000818048008502e900fcff3a00dc
:1026d00000000600f88f4200050035008100d1009f
:1026e0000080d3008502e800fcff3a0000000600ed
:1026f0008000eb00000005006011b800a200370068
:1027000081002000618055000b003d000b0020007f
:1027100061fe2f000100e1001d0034008281710084
:10272000610164008904d1000884d3000000e8003e
:10273000faff3a007100200061006400030070009d
:10274000020060000900320061044400e0844c0093
:102750000988a500050032008b05e8006808e10043
:1027600002003a008904d1000884d300f20f20004f
:102770000258e10005003d00c75ddd00f907b20029
:102780008980750008007800000006000bf827001b
:102790008b00780000000500c70ade00f107b200d8
:1027a000f50fb20008003200e1cf42000200320013
:1027b0000170a00024000500810f700001003200ac
:1027c0000408050044000500810f700002003a0073
:1027d000140005008502e9000000400081c04800a7
:1027e000fcff3b000170a000240005000004be00b7
:1027f000e9ff07000003be000405be000200be00a2
:10280000e5ff0700844f7500000006000200be00cf
:102810006450e100050036006420e100020036004b
:102820000968a30001003a000800be000160a00092
:102830004f0678004f05be004f04be0000000600a2
:10284000f0ff2f00f1ff2700f9ff3700889fbe003f
:102850008a9fbe008c1f7800e4ff0700ebff330067
:1028600003866c006450e100240032006420e10023
:10287000270032006150e100220032006120e100b7
:10288000210032008b854200eb07b1000134b80013
:10289000003ab8000804420089844a00013ab800ae
:1028a0000030b8008880400009014a00040033006d
:1028b0000000400081804800020149008b05e900ca
:1028c000c909dd00830170000100320013002000ff
:1028d000c814de004814dd004709de001200b20013
:1028e000c808de000884700085ff070001f0a10021
:1028f0000cf0a70001f0a000cdff37006120e1003f
:10290000cfff32000801be000200be00f7ff370013
:102910006150e100fcff3a00c9ff3700889fbe000c
:102920008a9fbe00841f7800b0ff07004f00780028
:1029300011003300f0ff2f00838f6c0006003b0076
:10294000040565000a00a7000800370009f0a6008a
:102950001000200008003700820f5400838f5c00b5
:10296000030039001000200001003e00000020009c
:1029700009f0a7000000ea004f05be004f04be00aa
:102980000000e00000000600889fbe008a9fbe0095
:10299000008270000402710004827100260032007f
:1029a0000004be000200be006011b8006b092000e8
:1029b000950220000182cf000a0039000541b100d4
:1029c0000082cf00070039000541b1000982cf0025
:1029d000040039000541b1000882cf000100390030
:1029e0000541b10005425200120032000a003b00ce
:1029f00082817100610164008100d1000080d300f8
:102a00008984d3000884d3008b05e8000442e800e1
:102a1000f7ff3a00070037000804440089844c009f
:102a200000004800818048008b05e9000442e9006d
:102a3000f9ff3a0032ff07004f05be004f04be0009
:042a4000000006008c
:020000040000fa
:020000040002f8
:04aff400031c00003a
:020000040000fa
:020000040002f8
:04aff8000f890000bd
:020000040000fa
:020000040002f8
:04affc007f3e000094
:020000040000fa
:1020000010110400000000009436040000000000dd
:102010009436040000000000943604000000000024
:102020009436040000000000943604000000000014
:102030009436040000000000943604000000000004
:102040009436040000000000362304000000000065
:1020500094360400000000009436040000000000e4
:10206000642304000000000092230400000000002c
:1020700094360400000000009436040000000000c4
:1020800038170400000000000a17040000000000d8
:1020900094360400000000009436040000000000a4
:1020a0009436040000000000943604000000000094
:1020b0009436040000000000943604000000000084
:1020c0009436040000000000943604000000000074
:1020d0009436040000000000943604000000000064
:1020e000c023040000000000ee23040000000000f4
:1020f0009436040000000000941704000000000063
:102100006617040000000000943604000000000080
:102110009436040000000000943604000000000023
:102120009436040000000000943604000000000013
:102130009436040000000000943604000000000003
:1021400094360400000000009436040000000000f3
:1021500094360400000000009436040000000000e3
:1021600094360400000000009436040000000000d3
:1021700094360400000000009436040000000000c3
:1021800094360400000000009436040000000000b3
:1021900094360400000000009436040000000000a3
:1021a0009436040000000000943604000000000093
:1021b0009436040000000000f01704000000000046
:1021c000c217040000000000943604000000000064
:1021d0009436040000000000943604000000000063
:1021e00094360400000000004c18040000000000b9
:1021f0001e180400000000009436040000000000d7
:102200009436040000000000943604000000000032
:102210009436040000000000943604000000000022
:020000040000fa
:1000080004100000081000000c1000001010000080
:10001800141000000c1100000c1100000c1100005d
:10002800181000001c100000201000002410000010
:100038000c110000281000002c10000030100000e7
:1000480034100000381000003c1000004010000080
:1000580044100000481000000c1100000c110000b2
:100068004c10000050100000541000005810000000
:100078005c1000000c11000060100000641000000b
:100088000c110000681000006c10000070100000d7
:1000980074100000781000007c1000008010000030
:1000a80084100000881000000c1100000c110000e2
:1000b8000c1100008c10000090100000941000003b
:1000c800981000009c100000a0100000a410000070
:1000d800a8100000ac1000000c1100000c1100006a
:1000e8000c110000b0100000b41000000c1100004a
:1000f8000c110000b8100000bc1000000c1100002a
:100108000c1100000c1100000c1100000c11000073
:100118000c1100000c110000c01000000c110000b0
:100128000c110000c4100000c8100000cc10000022
:100138000c1100000c1100000c1100000c11000043
:10014800d01000000c1100000c1100000c11000070
:100158000c110000d41000000c1100000c1100005c
:100168000c110000d8100000dc100000e0100000a6
:10017800e4100000e8100000ec100000f01000008f
:10018800f4100000f8100000fc100000001100003e
:1001980004110000081100000c1100000c110000ef
:1001a8000c1100000c1100000c1100000c110000d3
:1001b8000c1100000c1100000c1100000c110000c3
:1001c8000c1100000c1100000c1100000c110000b3
:1001d8000c1100000c1100000c1100000c110000a3
:1001e8000c1100000c1100000c1100000c11000093
:0801f8000c1100000c110000c5
:020000040000fa
:102a44000400fa00000f78002147980000000000fd
:102a54001e007800100090009000780000202000f4
:102a6400008060000000e000f9ff3a001e007800da
:102a740020009000ae4090008180fb0001087800a7
:102a84000080fa00000006000200fa00000f78003f
:102a9400000000001e007800100090001000780074
:102aa400610060000000e000faff32001e007800c0
:102ab4003000900010007800004078000080fa0098
:102ac400000006000400fa00000f78002147980077
:102ad400000000001e007800d01090001e00780056
:102ae40020109000808f5000faff32001e00780002
:102af400901090001e00780040109000008040006c
:102b0400ae409000014878001e007800401090000c
:102b14008000e8001e00780020109000000178007a
:102b2400110009008280d8008000fd008000780038
:102b34001e007800411098001e007800501090008c
:102b44008000e8001e007800511098001e007800f4
:102b5400d01090001e00780030189000808f500034
:102b6400080039001e007800100090009e007800d4
:102b740091009000110178000140200082807000d3
:102b8400010878000080fa00000006000400fa0042
:102b9400100798001e009000500090009e009000c6
:102ba400d1009000110178009e009000e14890004f
:102bb4008180fb00130020008118dd008180ea0081
:102bc40081006100010878001e0090005010900000
:102bd4000000e00025003a001e0090001000900064
:102be4009e0090009100900011017800f1bf2f0029
:102bf40081006100010878001d0037001e0090006c
:102c0400901090001e009000301090000080400052
:102c1400104f78001e009000301090008000e800f3
:102c24001e0090002010900000017800110009009f
:102c34008280d8008000fd00800078001e00900093
:102c4400311098001e009000501090008000e900a0
:102c54001e009000511098001e009000200090006b
:102c64009e80fb000108780001003700000000008e
:102c74001e009000100090009000780000202000ba
:102c8400008060000000e00004003a001e00900094
:102c9400501090000000e000d8ff3a000080fa00d5
:102ca400000006000400fa0010079800000000006d
:102cb4001e009000201890000000e000fcff32008d
:102cc4001e009000e01090001e009000001890007c
:102cd40000804000104f78001e0090000018900003
:102ce4008000e8001e009000701090000001780041
:102cf400110009008280d8008000fd008000780067
:102d04001e009000011898001e00900020189000ea
:102d14008000e9001e009000211898001e407800f1
:102d24000080fa00000006000200fa00000f78009c
:102d34001e007800500090009e007800d1009000a2
:102d4400110178009e007800f14890008180fb001a
:102d5400130020008118dd008180ea0081006100f9
:102d6400010878001b0037001e007800e010900076
:102d74001e00780010189000008040009e0078002b
:102d8400b1009000910078008140780001487800fb
:102d94001e007800101890008000e8001e007800e3
:102da4007010900000017800110009008280d800a2
:102db4008000fd00800078001e0078001118980043
:102dc4001e007800201890008000e8001e007800a3
:102dd400211898001e007800100090001000780060
:102de40061006000004078000004e000060032004a
:102df4001e007800a01890001e007800701090004b
:102e0400808f5000d8ff3a000080fa0000000600ce
:102e14003600f800809fbe00829fbe00849fbe00e3
:102e2400869fbe003200f8003400f8001000200035
:102e3400a001880010002000900188000000fa0022
:102e4400209f200051ff07000080fa003400f900a1
:102e54003200f9004f03be004f02be004f01be0016
:102e64004f00be003600f900004006003600f800ae
:102e7400809fbe00829fbe00849fbe00869fbe00ce
:102e84003200f8003400f80010002000a00188008f
:102e940010002000900188000000fa00209f20000c
:102ea400a1ff07000080fa003400f9003200f900a5
:102eb4004f03be004f02be004f01be004f00be00d4
:102ec4003600f900004006003600f800809fbe007e
:102ed400829fbe00849fbe00869fbe003200f80021
:102ee4003400f80010002000a00188001000200029
:102ef400900188000000fa00e0a2200023ff0700f0
:102f04000080fa003400f9003200f9004f03be00db
:102f14004f02be004f01be004f00be003600f90054
:102f2400004006003600f800809fbe00829fbe006d
:102f3400849fbe00869fbe003200f8003400f80073
:102f440010002000a00188001000200090018800db
:102f54000000fa00e0a2200073ff07000080fa00de
:102f64003400f9003200f9004f03be004f02be00e6
:102f74004f01be004f00be003600f90000400600bd
:102f84003600f800809fbe00829fbe00849fbe0072
:102f9400869fbe003200f8003400f80010002000c4
:102fa400a001880010002000900188000000fa00b1
:102fb400a0a62000f5fe07000080fa003400f90006
:102fc4003200f9004f03be004f02be004f01be00a5
:102fd4004f00be003600f900004006003600f8003d
:102fe400809fbe00829fbe00849fbe00869fbe005d
:102ff4003200f8003400f80010002000a00188001e
:1030040010002000900188000000fa00a0a6200013
:1030140045ff07000080fa003400f9003200f9008f
:103024004f03be004f02be004f01be004f00be0062
:103034003600f900004006003600f800809fbe000c
:10304400829fbe00849fbe00869fbe003200f800af
:103054003400f80010002000a001880010002000b7
:10306400900188000000fa0060aa2000c7fe070053
:103074000080fa003400f9003200f9004f03be006a
:103084004f02be004f01be004f00be003600f900e3
:10309400004006003600f800809fbe00829fbe00fc
:1030a400849fbe00869fbe003200f8003400f80002
:1030b40010002000a001880010002000900188006a
:1030c4000000fa0060aa200017ff07000080fa0041
:1030d4003400f9003200f9004f03be004f02be0075
:1030e4004f01be004f00be003600f900004006004c
:1030f4000800fa001007980021079800320798008a
:103104001e0090000000e00025003500e10f500093
:1031140003003400e20f5000110032002100370098
:103124000000eb00000f7800080037002e0090002c
:10313400904078002e0090000000e80020079800de
:10314400b04180004b0407001e0fe8009e00780089
:103154003e009000808f5000f4ff390011003700ca
:103164000000eb00000f7800080037002e009000ec
:10317400904078002e0090000000e800200798009e
:10318400c04180003b0407001e0fe8009e00780049
:103194003e009000808f5000f4ff3900010037009a
:1031a400000000003e0090000080fa0000000600cd
:1031b4000000fa002e0a0700406d2000801f7800ee
:1031c4005701200086c0b3008082eb0064c0b300c6
:1031d4008001eb00022f2000212f200020ae2000d0
:1031e400370b07008f87e900a06d2000801f78004f
:1031f400a70120000043eb008082eb0074c0b30001
:103204008001eb00022f2000212f200080af20003e
:103214002b0b07008f87e90040002000801f7800f7
:1032240030002000801f780080c0b300801f780029
:103234000040eb00801f7800406a2000801f780067
:10324400406a2000801f7800b0c0b300801f78005f
:10325400c0c0b300801f7800470920004608200042
:103264008522200064222000432220002222200004
:1032740001222000209f20006b000700f0875700e8
:1032840060002000801f780050002000801f78001c
:1032940080c0b300801f78000040eb00801f7800de
:1032a400606a2000801f7800606a2000801f780018
:1032b400e0c0b300801f7800f0c0b300801f780026
:1032c400670920006608200085232000642320006d
:1032d400432320002223200001232000e0a2200019
:1032e40051000700f0875700d0012000801f7800ac
:1032f400c0012000801f780080c0b300801f7800c8
:1033040080c0b300801f7800a06a2000801f78006e
:10331400206a2000801f780020c0b300801f78003e
:1033240030c0b300801f7800e7092000e6082000c1
:103334008525200064252000432520002225200027
:1033440001252000a0a6200037000700f0875700c1
:10335400f0012000801f7800e0012000801f780029
:1033640080c0b300801f78000040eb00801f78000d
:10337400606b2000801f7800606b2000801f780045
:1033840080c0b300801f780090c0b300801f780015
:10339400e7092000e6082000852b2000642b20008c
:1033a400432b2000222b2000012b200060aa2000a8
:1033b4001d000700f08757000000eb00801f780015
:1033c4000000eb00801f78000000eb00801f7800f5
:1033d4000000eb00801f78000000eb00801f7800e5
:1033e40010002000801f7800e5c4b3000600200010
:1033f400676924000002eb008001eb0082af20002b
:1034040021ae2000209f200072000700ec875700a7
:10341400209f2000b0418800209f2000c0418800e8
:103424000080fa00000006001000fa00000f780087
:103434001107980022079800330798004407980062
:103444005507980066079800770798001e007800d3
:103454009e009000010878001e007800ae009000e5
:10346400110098001e007800be0090002100980012
:103474001e007800ce009000310098001e007800f5
:10348400de009000410098001e007800ee009000dd
:10349400510098001e007800fe0090006100980022
:1034a4001e0078008ef89700614898001e0078008e
:1034b400eef09700714898001e007800aeb89700af
:1034c400010898001e0078009eb897001108980023
:1034d4001e0078008ef09700415098001e0078007e
:1034e400eee89700515098001e007800eeb0970067
:1034f400310898001e007800deb09700410898005b
:103504001e0078008000eb00510898001e0078002f
:103514008000eb00610898001e0078008000eb003a
:10352400710898001e0078008000eb0001109800dc
:103534001e0078008000eb00111098001e00780037
:103544008000eb00211098001e0078008000eb0042
:10355400311098001e0078008000eb0041109800a4
:103564001e0078008000eb00511098001e007800c7
:103574008000eb00611098001e0078008000eb00d2
:10358400711098001e0078008000eb00011898006c
:103594001e0078008000eb00111898001e007800cf
:1035a4008000eb00211898001e0078001100200014
:1035b400311898001e0078008000eb004118980034
:1035c4001e0078008000eb00511898000080fa007b
:1035d400000006001000fa00881f7800000f780031
:1035e40011079800220798003307980044079800b1
:1035f4005607980067079800654f98001e007800ea
:10360400100078008000eb00010878001e00900094
:1036140060009000e10f40000e0232002e00900086
:1036240060009000e10f40000c0232001e00900088
:10363400000890000000e00069003a002e009000ad
:10364400000890000000e00065003a001e009000b1
:103654006e0a07001e009000c90a07002e009000a1
:10366400430a07001e0078009e009000510898004d
:103674001e0090009e007800010898001e00900033
:103684008000eb00110898001e0090008000eb0001
:10369400210898001e007800ae0090006108980090
:1036a4002e0090009e007800010898002e009000e3
:1036b4008000eb00110898002e0090008000eb00c1
:1036c40021089800113a8000f00b2000008160006e
:1036d40060042000710520002374200080497800d4
:1036e40081497800824978001e00900070009000a3
:1036f4009e009000f1009000110178009e0090005f
:10370400a14890008180fb00f30320008118dd00b4
:103714008180ea0081006100010878001e009000a9
:10372400700090009e009000f1009000110178005c
:103734009e007800b10990009e009000a14890007e
:103744008180fb008118dd00828070000108780010
:103754001e007800000890009e0078008108900008
:10376400110178009e007800c15090008180fb0018
:10377400f30320008118dd008180ea0081006100ec
:10378400010878001e007800000890009e00780070
:103794008108900011017800ae009000e1019000d2
:1037a4009e007800c15090008180fb008118dd00ec
:1037b4008280700001087800113a80000004200023
:1037c40001017000600420007105200023742000b2
:1037d4008049780081497800824978000a003700de
:1037e4001e007800d00890001e009000808f5000ca
:1037f4009c013a001e007800e00890002e00900022
:10380400808f500099013a003e0090000000e000d3
:10381400870032004e0090000000e0008400320077
:103824003e00900060009000e10f400091013200e2
:103834004e00900060009000e10f40008f013200c4
:103844003e009000000890000000e00069003a008b
:103854004e009000000890000000e00065003a006f
:103864003e009000e90907003e009000440a07006a
:103874004e009000be0907001e007800be009000b4
:10388400710898003e0090009e007800010898009e
:103894003e0090008000eb00110898003e0090006c
:1038a4008000eb00210898001e007800ce009000f4
:1038b400011098004e0090009e00780001089800c6
:1038c4004e0090008000eb00110898004e0090001c
:1038d4008000eb0021089800113a8000f00b2000d2
:1038e4000081600060042000710520002374200022
:1038f4008049780081497800824978003e00900030
:1039040070009000be009000f1009000110178005a
:10391400be009000a14890008180fb00f3032000ca
:103924008118dd008180ea008100610001087800cf
:103934003e00900070009000be009000f1009000e6
:10394400110178009e007800c1099000be0090002b
:10395400a14890008180fb008118dd008280700006
:10396400010878001e007800100890009e0078007e
:1039740091089000110178009e007800d1509000c9
:103984008180fb00f30320008118dd008180ea00c0
:1039940081006100010878001e0078001008900082
:1039a4009e0078009108900011017800ce009000ec
:1039b400e10190009e007800d15090008180fb00ce
:1039c4008118dd008280700001087800113a8000bf
:1039d4000004200001017000600420007105200033
:1039e4002374200080497800814978008249780056
:1039f4000a0037001e007800f00890003e00900096
:103a0400808f50001f013a001e0078008010900043
:103a14004e009000808f50001c013a001e00780078
:103a2400100078000120200001087800060037000b
:103a34003e0090000000e00016013a004e009000a5
:103a44000000e00015013a0018c0b3000240220053
:103a540043a724005e009000ee00900008fb0700de
:103a64000000e00001003c000044eb000804e0001a
:103a7400040032000040220041a7240050079800af
:103a84006107980018c0b3000240220043172400c5
:103a94005e009000ee009000f7fa07000000e000de
:103aa400010035000044eb000804e000040032008b
:103ab4000040220041172400500798006107980035
:103ac40018c0b30002402200432724005e00900087
:103ad400ee009000e8fa07000000e0000100340066
:103ae4000044eb000804e0000f0032001e007800e0
:103af400400490005e019000ee019000004022001e
:103b0400419724009afa07000200200003f02300e2
:103b14003afa0700dcfa0700000078000000e90028
:103b2400000c7800150037001e00780010007800a3
:103b34009e00780091007800910078000130a00088
:103b4400010878001e007800400490005e01900097
:103b5400ee0190000040220041a7240084fa0700ef
:103b64000200200003f0230024fa0700c6fa07002d
:103b7400000078000000e900000c7800ee48900096
:103b840050c4b30080cf500004003200ee489000cf
:103b940050c6b30080cf500008003a001e007800e1
:103ba400100078009e007800910078009100780061
:103bb4000110a0000108780018003700ee489000ba
:103bc400f0c4b30080cf500004003200ee489000ef
:103bd400f0c6b30080cf500008003a001e00780001
:103be400100078009e007800910078009100780021
:103bf4000120a0000108780008003700ee4890007a
:103c0400e0c4b30080cf500004003200ee489000be
:103c1400e0c6b30080cf5000a2003a004eb897002f
:103c2400e20f500008003a001e00780010007800ef
:103c34009e00780091007800910078000100a000b7
:103c440001087800030037004eb89700e10f5000d8
:103c540096003a002eb897000000e00004003a00f5
:103c64001e007800215221004118980036003700c8
:103c74001e007800100090009e00780091009000d3
:103c84001101780001002200828070000108780090
:103c94001e007800aeb89700111098001e0078003e
:103ca4009eb89700211098001e0078008000eb0059
:103cb400311098001e0078008000eb00411098003d
:103cc4001e0078008000eb00511098001e00780060
:103cd400beb89700311898001e00780041562100a4
:103ce400411898001e007800500090009e00780053
:103cf400d1009000110178009e007800e148900006
:103d04008180fb00130020008118dd008180ea001f
:103d140081006100010878001e00780060009000b6
:103d24009e007800e1009000110178009e00780068
:103d3400e14890008180fb00130020008118dd0021
:103d440082807000010878000eb897000000e0003f
:103d540004003a001e0078006154210051189800b4
:103d64002b0037001e0078008eb897006110980071
:103d74001e007800feb09700711098001e007800b5
:103d84008000eb00011898001e0078008000eb0012
:103d9400111898001e0078008000eb00211898008c
:103da4001e00780041652100511898001e0078001b
:103db400500090009e007800d1009000110178001e
:103dc4009e007800f14890008180fb0013002000e1
:103dd4008118dd008180ea0081006100010878001b
:103de4001e007800600090009e007800e1009000c2
:103df400110178009e007800f14890008180fb005a
:103e0400130020008118dd00828070000108780012
:103e14001e007800100078009e0078009100780061
:103e240011017800010028008280700001087800e8
:103e34001e007800100090009e0078009100900011
:103e44001101780001402000828070000108780090
:103e540017003700000000001500370000000000c4
:103e640013003700000000001100370000000000bc
:103e74000f003700000000000d00370000000000b4
:103e84000b003700000000000900370000000000ac
:103e940007003700000000000500370000000000a4
:103ea400030037000000000001003700000000009c
:103eb4004f0478000080fa00000006000200fa00b7
:103ec400000f78001e007800100090009e0078001b
:103ed4009100900011017800f1bf2f008100610072
:103ee400010878001e007800100078008000eb00c4
:103ef400010878001e007800600090009e007800a1
:103f0400e1009000110178009e007800e1489000e3
:103f14008180fb00130020008118dd008180ea000d
:103f240081006100010878001e00780060009000a4
:103f34009e007800e1009000110178009e00780056
:103f4400f14890008180fb00130020008118dd00ff
:103f54008180ea0081006100010878001e00780079
:103f64008000eb00411898001e0078008000eb00f0
:103f7400511898001e007800500890000000e000de
:103f84002f003200113a8000f00b20000081600005
:103f9400600420007105200023742000804978000b
:103fa40081497800824978001e007800500890000a
:103fb400700090009e007800d1089000f1009000fd
:103fc400110178009e007800d1089000a14890006b
:103fd4008180fb00f30320008118dd008180ea006a
:103fe4008100610001087800113a8000000420007b
:103ff400010170006004200071052000237420007a
:104004008049780081497800824978001e00780050
:10401400500890008000eb00010898001e00780012
:1040240050089000f90707001e007800500890001f
:10403400530807001e0078008000eb005108980028
:104044001e007800600890000000e00028003200a4
:10405400113a8000f00b2000008160006004200011
:10406400710520002374200080497800814978007c
:10407400824978001e007800000890009e007800b5
:1040840081089000110178009e007800c1509000d2
:104094008180fb00f30320008118dd008280700022
:1040a40001087800113a800000042000010170002a
:1040b40060042000710520002374200080497800ea
:1040c40081497800824978001e00780060089000d9
:1040d4008000eb00010898001e0078006008900042
:1040e400a30707001e0078008000eb006108980019
:1040f4001e007800700890000000e0002f003200dd
:10410400113a8000f00b2000008160006004200060
:1041140071052000237420008049780081497800cb
:10412400824978001e0078007008900070009000aa
:104134009e007800f1089000f100900011017800d1
:104144009e007800f1089000a14890008180fb0057
:10415400f30320008118dd008180ea008100610002
:1041640001087800113a8000000420000101700069
:104174006004200071052000237420008049780029
:1041840081497800824978001e0078007008900008
:104194008000eb00010898001e0078007008900071
:1041a4009a0707001e00780070089000f4070700c3
:1041b4001e0078008000eb00710898001e00780053
:1041c400001090000000e00028003200113a800046
:1041d400f00b2000008160006004200071052000c5
:1041e400237420008049780081497800824978004e
:1041f4001e007800100890009e007800910890003e
:10420400110178009e007800d15090008180fb005d
:10421400f30320008118dd0082807000010878001b
:10422400113a8000000420000101700060042000a5
:1042340071052000237420008049780081497800aa
:10424400824978001e007800001090008000eb0086
:10425400010898001e007800001090004407070031
:104264001e0078008000eb00011098000080fa0026
:10427400000006000400fa00000f780021479800af
:104284001e007800401890000000e0000500320095
:104294001e00780040199000ae4090001e00780087
:1042a400020001000080fa00000006000200fa008b
:1042b400000f78001e007800501890000000e00005
:1042c400050032001e007800d01890001e0078000f
:1042d400010001000100370000c0eb000080fa007b
:1042e400000006000200fa00000f78001e007800ab
:1042f40010009000900078000040200000806000d2
:104304000000e00008003a001e0078001000900051
:104314009e00780091009000110178000140200077
:1043240082807000010878000080fa000000060016
:104334000400fa00000f7800110798000800370005
:104344001e009000104078009e0090008100e8005c
:1043540011079800804078001e007800c5ff070010
:104364001e009000104078000004e000f4ff3a00c2
:104374001e007800dbff07000080fa000000060042
:104384000a00fa00200798003107980042079800b5
:104394004e0090000000e000870032004e009000c4
:1043a400e10f500004003a003e0090008040eb0012
:1043b4000148780081003700b1c1b3002e0090009d
:1043c400acff070071c3b3002e009000a9ff0700e3
:1043d4002e009000c3ff0700be0090001107980054
:1043e400ce009000010f78000300370000000000a9
:1043f40001003700000000002e009000abff070012
:10440400be009000804878003e0090001040780084
:10441400ed4f50000c003a003e0090008040eb004d
:1044240001487800a1c0b3002e00900091ff07005e
:10443400d1c0b3002e0090008eff07002e00900024
:10444400a8ff07005d0037003e0090001040780090
:10445400fb4f500016003a00b1c1b3002e0090008b
:1044640084ff070081c3b3002e00900081ff070082
:10447400b1c1b3002e0090007eff0700b1c5b300a8
:104484002e0090007bff0700b1c4b3002e00900003
:1044940078ff07002e00900092ff07009e00900016
:1044a40031079800ce009000010f780041003700da
:1044b4003e00900010407800e84f500005003200a4
:1044c4003e00900090407800f0c7b30080cf5000c9
:1044d4001a003a00be0090001e009000808f500029
:1044e4001000360081c0b3002e00900061ff070069
:1044f40001c2b3002e0090005eff070081c0b3002c
:104504002e0090005bff07002e00900075ff07004f
:104514003e0090000000e900300798001e0fe800fc
:104524000500370071c0b3002e00900051ff070052
:104534002e0090006bff07001e0037001e0078005d
:10454400e10f500006003a0071c0b3002e00900045
:1045540048ff07002e00900062ff07001500370097
:104564003e00900010407800ff4f50009fff36003f
:104574003e00900090407800e0c7b30080cf500028
:104584009cff3e003e009000104078008040780080
:104594002e00900037ff07002e00900051ff070007
:1045a4003e0090000000e800300798001e0fe9006c
:1045b40091ff370090ff3700000000000080fa00f0
:1045c400000006000200fa00000f78001e007800c8
:1045d400010207001e007800100890000000e000af
:1045e400050032001e007800900890001e0078003c
:1045f400010001001a0037001e0078002008900016
:104604000000e000140032001e0078000008900052
:104614000000e0000a0032001e007800a0089000ac
:104624001e007800010001001e00780000089000c0
:104634008000e9001e007800010898000800370097
:104644001e0078000c0207001e0078008000eb00ba
:1046540021089800020037001e00780006020700b7
:104664000080fa00000006003600f800809fbe00bb
:10467400829fbe00849fbe00869fbe003200f80069
:104684003400f80010002000a00188001000200071
:10469400900188000000fa00e0b02000c9ff070084
:1046a4000080fa003400f9003200f9004f03be0024
:1046b4004f02be004f01be004f00be003600f9009d
:1046c400004006003600f800809fbe00829fbe00b6
:1046d400849fbe00869fbe003200f8003400f800bc
:1046e40010002000a0018800100020009001880024
:1046f4000000fa0040b22000b2ff07000080fa0078
:104704003400f9003200f9004f03be004f02be002e
:104714004f01be004f00be003600f9000040060005
:104724003600f800809fbe00829fbe00849fbe00ba
:10473400869fbe003200f8003400f800100020000c
:10474400a001880010002000900188000000fa00f9
:10475400a0b320009bff07000080fa003400f9009a
:104764003200f9004f03be004f02be004f01be00ed
:104774004f00be003600f900004006003600f80085
:10478400809fbe00829fbe00849fbe00869fbe00a5
:104794003200f8003400f80010002000a001880066
:1047a40010002000900188000000fa0000b52000ed
:1047b40084ff07000080fa003400f9003200f90099
:1047c4004f03be004f02be004f01be004f00be00ab
:1047d4003600f900004006003600f800809fbe0055
:1047e400829fbe00849fbe00869fbe003200f800f8
:1047f4003400f80010002000a00188001000200000
:10480400900188000000fa0060b620006dff0700e8
:104814000080fa003400f9003200f9004f03be00b2
:104824004f02be004f01be004f00be003600f9002b
:10483400004006000000fa00b0002000801f78004d
:104844004700200036c0b30045092000440820007a
:10485400031020002210200041102000e0b02000ae
:10486400330007008f87e900c0002000801f780014
:104874008003eb0076c0b300450920004408200003
:1048840063102000c21020000111200040b220005b
:10489400270007008f87e900d0002000801f7800e0
:1048a4001700200086c0b3004509200044082000fa
:1048b400a3102000e210200021112000a0b320004a
:1048c4001b0007008f87e900e0002000801f7800ac
:1048d40027002000b6c0b30065092000640820004a
:1048e40043112000a2112000e111200000b5200096
:1048f4000f0007008f87e900f0002000801f780078
:1049040037002000c6c0b3006509200064082000f9
:1049140083112000c21120000112200060b6200083
:10492400030007008f87e9000080fa0000000600fa
:104934001000fa00000f7800110798002207980071
:10494400330798004407980055079800464f98008d
:10495400770798001e0078009e00900001087800f8
:104964001e007800ae009000110098001e00780030
:10497400be009000210098001e007800ce00900038
:10498400310098001e007800de009000410098007d
:104994001e007800ce489000214898001e00780040
:1049a400fe009000610098001e007800ceb89700c9
:1049b400710098001e0078008000eb000108980048
:1049c4001e0078008000eb00110898001e0078009b
:1049d4008000eb00210898000080fa000000060027
:1049e4000600fa00881f7800000f7800120798006c
:1049f4002307980018c0b300d27b230063f8230078
:104a04001e009000ae0090001df707000000e000bb
:104a140001003c000044eb000804e00069003a0097
:104a240018c0b300d27b230063e823001e0090006b
:104a3400ae00900012f707000000e00001003c0007
:104a44000044eb000804e000120032001e0078006d
:104a5400c40007001e007800100078000103200045
:104a6400010878001e007800100490000240220023
:104a7400437724001e009000ae00900072f70700f8
:104a840001f70700000078000000e900000c78003e
:104a94004d00370018c0b300d27b230063d023003d
:104aa4001e009000ae009000f5f607000000e00044
:104ab40001003c000044eb000804e0001200320056
:104ac4001e007800a70007001e0078001000780080
:104ad40001022000010878001e00780010049000f4
:104ae40002402200438724001e009000ae00900084
:104af40055f70700e4f60700000078000000e9001d
:104b0400000c78003000370018c0b300d27b2300bb
:104b140063b823001e009000ae009000d8f6070092
:104b24000000e00001003c000044eb000804e00049
:104b3400120032001e0078008a0007001e00780070
:104b44001000780001012000010878001e007800a0
:104b54001004900002402200439f24001e00900095
:104b6400ae00900038f70700c7f607000000780091
:104b74000000e900000c7800130037001e007800e4
:104b8400780007001e007800100078008000eb0019
:104b9400010878001e0078001004900002402200f2
:104ba40043b724001e009000ae00900026f70700d3
:104bb400b5f60700000078000000e900000c78005a
:104bc40001003700000000004f0478000080fa0064
:104bd400000006000400fa00889fbe001007980039
:104be4001e00900010007800900078000003200060
:104bf400008060004400de00000f78001e00780092
:104c0400c200dd00e0bb2000008040001004be00b4
:104c14001e00900010009000100078008000eb004f
:104c2400b4f607000200200003f82300f3f50700a0
:104c34000001be000800be0003f707004f04be00d9
:104c44000080fa00000006000600fa00000f780059
:104c540012079800230798001e019000ae019000ef
:104c64000000200001f8230041f607000001be0007
:104c74001e0078005aff07000080fa0000000600ba
:104c84000200fa00000f78001e007800d1ff070030
:104c94000001be000000200001f8230034f60700e4
:104ca4000080fa00000006000400fa00889fbe009d
:104cb400100798001e009000100078009000780003
:104cc40000032000008060004400de00000f780034
:104cd4001e007800c200dd00e0bb20000080400020
:104ce4001004be001e009000100090001000780018
:104cf4008000eb007ff607000200200003f8230089
:104d0400bef507000001be000800be00cef6070095
:104d14004f04be000080fa00000006000200fa0002
:104d2400000f78001e0078002b0007001e0078009a
:104d3400200090008000eb00010878001e0078003d
:104d4400100078009e00780091007800110178002e
:104d54000100280082807000010878000080fa00b9
:104d6400000006000200fa00000f78001e00780020
:104d7400100078009e0078009100780011017800fe
:104d8400f1ff270081006100010878000080fa002b
:104d9400000006000200fa00000f78001e007800f0
:104da40030009000900078001e00780020489000a9
:104db4000080fb00120020000010dd000080600075
:104dc40000f0a7000000ea000000ea004f00de0047
:104dd4000080fa00000006000200fa00000f7800cc
:104de4001e007800300090009e007800b100900012
:104df400110178009e007800a14890008180fb009a
:104e0400130020008118dd008180ea008100610028
:104e1400010878000080fa00000006000200fa0091
:104e2400000f78001e007800200090001000780029
:104e34000080fa00000006000200fa00000f78006b
:104e44001e007800400090009e007800c100900091
:104e5400110178009e007800a14890008180fb0039
:104e6400130020008118dd008280700001087800a2
:104e74000080fa00000006000200fa00000f78002b
:104e84001e007800400090009e007800c100900051
:104e9400110178009e007800a14890008180fb00f9
:104ea400130020008118dd008180ea008100610088
:104eb400010878000080fa00000006000800fa00eb
:104ec400000f780012079800230798003107980014
:104ed4001e007800e8ff07001e019000ae0190005c
:104ee4001e007800befe07001e0078008000eb0064
:104ef400010898001e007800be0090001108980078
:104f04001e0078008000eb00210898001e00780045
:104f1400c9ff07001e00780080ff07000080fa0028
:104f2400000006000a00fa00000f7800120798003b
:104f34002307980031079800440798001e00780062
:104f4400cdff07001e019000ae0190001e00780006
:104f5400a3fe07001e007800be0090000108980020
:104f64001e0078008000eb00110898001e007800f5
:104f7400ce009000210898001e007800aeff0700c4
:104f84001e00780065ff07000080fa00000006009c
:104f94000200fa00000f78001e007800b6ff070038
:104fa4001e0078008cff07001e0078006dff0700cc
:104fb4001e0078008000eb00010898001e007800b5
:104fc4008000eb00110898001e0078008000eb00c0
:104fd400210898000080fa00000006000000fa0092
:104fe40080002000801f7800770020000043eb0041
:104ff400856a2000842420004324200022242000e9
:1050040001242000c0b720001b0007008f87e9009f
:10501400b0002000801f7800a70020000043eb00b0
:10502400c56a200084262000432620002226200072
:105034000126200020b920000f0007008f87e90017
:1050440010022000801f7800070220000043eb00bc
:10505400856b20008428200043282000222820007b
:105064000128200080ba2000030007008f87e90090
:105074000080fa00000006001000fa00000f78001b
:1050840011079800220798003307980044079800f6
:1050940055079800464f9800770798001e0078003f
:1050a4009e009000010878001e007800ae00900079
:1050b400110098001e007800be00900021009800a6
:1050c4001e007800ce009000310098001e00780089
:1050d400de009000410098001e007800ce48900049
:1050e400214898001e007800fe009000610098009e
:1050f4001e007800ceb89700710098001e0078005a
:105104008000eb00010898001e0078008000eb008e
:10511400110898001e0078008000eb002108980018
:105124000080fa00000006001a00fa00881f7800c8
:105134006007980071079800020f9800130f9800f9
:10514400240f9800350f9800065f98000010200087
:10515400200798000000eb0030079800001420009e
:105164004007980000042000500798007e0090003b
:1051740060009000e10f4000370132000e089000fb
:1051840060009000e10f4000350132001e089000dd
:1051940060009000e10f4000330132007e00900077
:1051a400000890000000e00097003a000e0890000c
:1051b400000890000000e00093003a001e089000f0
:1051c400000890000000e0008f003a007e0090008c
:1051d400670307000e0890008c0307000e08900078
:1051e400e70307001e089000880307001e089000cc
:1051f400f80307006e009000fe009000010898007c
:105204007e009000ee009000010898007e0090005f
:105214008000eb00110898007e0090008000eb00f5
:10522400210898006e0090008e08900011089800e4
:105234000e089000ee009000010898000e089000ff
:105244008000eb00110898000e0890008000eb002d
:10525400210898006e0090009e0890002108980094
:105264001e089000ee009000010898001e089000af
:105274008000eb00110898001e0890008000eb00ed
:1052840021089800113a8000f00b20000081600092
:1052940060042000710520002374200080497800f8
:1052a40081497800824978006e00900040009000a7
:1052b400ee009000c100900011017800ee00900013
:1052c400a14890008180fb00f30320008118dd00d9
:1052d4008180ea0081006100010878006e0090007e
:1052e40040009000ee009000c10090001101780091
:1052f400fe009000e1019000ee009000a1489000b3
:105304008180fb008118dd00828070000108780034
:105314000e089000700090008e089000f10090003c
:10532400110178008e089000a14890008180fb0054
:10533400f30320008118dd008180ea008100610010
:10534400010878000e089000700090008e0890000c
:10535400f100900011017800ee009000e10190004e
:105364008e089000a14890008180fb008118dd0028
:1053740082807000010878001e0890007000900080
:105384009e089000f1009000110178009e089000a2
:10539400a14890008180fb00f30320008118dd0008
:1053a4008180ea0081006100010878001e089000f5
:1053b400700090009e089000f100900011017800a8
:1053c400ee009000f10190009e089000a14890002a
:1053d4008180fb008118dd00828070000108780064
:1053e400113a8000000420000101700060042000d4
:1053f40071052000237420008049780081497800d9
:10540400824978000f0037006e00900080089000f9
:105414007e009000808f500095003a006e0090004e
:10542400900890000e089000808f500092003a007f
:105434006e009000a00890001e089000808f50001d
:105444008f003a0018c0b3000240220043af24008a
:105454002e089000be08900089f407000000e000c8
:1054640001003c000044eb000804e00004003200aa
:105474000040220041af2400200f9800310f980013
:1054840018c0b30002402200436f24002e0890008d
:10549400be08900078f407000000e0000100350029
:1054a4000044eb000804e000040032000040220045
:1054b400416f2400200f9800310f980018c0b300ea
:1054c40002402200437f24002e089000be08900072
:1054d40069f407000000e000010034000044eb0020
:1054e4000804e0000a00320002002000032824001f
:1054f4002e089000be089000d3f40700200f9800f7
:10550400310f98000000eb00000f78002c003700ea
:1055140018c0b30002402200438f24002e089000dc
:10552400be08900054f407000000e00001003400bd
:105534000044eb000804e0000a00320002002000ee
:10554400031824002e089000be089000bef4070043
:10555400200f9800310f980010002000000f7800f1
:105564001700370018c0b30002402200439f2400f4
:105574002e089000be0890003ff407000000e000f1
:10558400010034000044eb000804e0000a0032008b
:1055940002002000030824002e089000be0890009a
:1055a400a9f40700200f9800310f98002000200074
:1055b400000f78000200370030002000000f780050
:1055c4002e099000be0990000040220041b724003b
:1055d400e7f307000200200003f0230087f307002d
:1055e40029f40700100798001e00900068001000be
:1055f4004200dd00100798006e00900090009000bb
:105604000e5890000080fb00630060000000400022
:105614006401470000004100100078001e01700082
:105624001e009000020170000002200002007000c1
:10563400800878006e009000200090008000eb004d
:10564400010878006e009000100078000100280026
:10565400010878000b003700000000000900370043
:1056640000000000070037000000000005003700bc
:1056740000000000030037000000000001003700b4
:10568400000000004f0478000080fa0000000600cb
:105694000200fa00000f78001e0078001000780065
:1056a4008000eb00010878001e00780010009000d4
:1056b4008000eb00010878001e00780020009000b4
:1056c4008000eb00010878001e00780000089000bc
:1056d4000000e00028003200113a8000f00b2000a6
:1056e4000081600060042000710520002374200004
:1056f4008049780081497800824978001e0078004a
:10570400400090009e007800c100900011017800d4
:105714009e007800a14890008180fb00f3032000e4
:105724008118dd008280700001087800113a800041
:1057340000042000010170006004200071052000b5
:1057440023742000804978008149780082497800d8
:105754001e007800000890008000eb00010898000b
:105764001e00780000089000010207001e00780067
:105774008000eb00010898001e00780010089000db
:105784000000e0002f003200113a8000f00b2000ee
:105794000081600060042000710520002374200053
:1057a4008049780081497800824978001e00780099
:1057b40010089000700090009e00780091089000fe
:1057c400f1009000110178009e007800910890008b
:1057d400a14890008180fb00f30320008118dd00c4
:1057e4008180ea008100610001087800113a80009c
:1057f40000042000010170006004200071052000f5
:105804002374200080497800814978008249780017
:105814001e007800100890008000eb00010898003a
:105824001e00780010089000f80107001e007800a0
:1058340010089000520207001e0078008000eb0060
:10584400110898001e007800200890000000e00075
:105854002f003200113a8000f00b2000008160001c
:105864006004200071052000237420008049780022
:1058740081497800824978001e0078002008900051
:10588400700090009e007800a1089000f100900044
:10589400110178009e007800a1089000a1489000b2
:1058a4008180fb00f30320008118dd008180ea0081
:1058b4008100610001087800113a80000004200092
:1058c4000101700060042000710520002374200091
:1058d4008049780081497800824978001e00780068
:1058e400200890008000eb00010898001e0078005a
:1058f40020089000c50107001e00780020089000d1
:10590400340207001e0078008000eb002108980094
:105914000080fa00000006000400fa00000f78007e
:10592400214798001e00780030009000ae4090009f
:105934008180fb0001087800000000001e00780050
:105944001000780010007800610060000000e000a2
:10595400faff32001e00780030009000100078003a
:10596400004078000080fa00000006000400fa00fd
:10597400000f7800110798001e0090000000e0005e
:105984000d0032001e007800100078009e007800a0
:1059940091007800110178009e007800e1409000a9
:1059a4008180fb00130020008118dd0082807000dc
:1059b400010878000d0037001e0078001000780000
:1059c4009e00780091007800110178009e00780014
:1059d400e14090008180fb00130020008118dd006d
:1059e4008180ea0081006100010878000080fa00eb
:1059f400000006000200fa00000f78001e00780084
:105a040010007800900078001e007800604090003c
:105a14000080fb00120020000010dd000080600008
:105a240000f0a7000000ea000000ea004f00de00da
:105a34000080fa00000006000200fa00000f78005f
:105a44001e00780040009000401988002023a80020
:105a54000000000000198000610060000000e00008
:105a6400fcff3200001880000080fa0000000600ed
:105a74000200fa00406d2000801f780047012000da
:105a84000043eb008082eb0054c0b3008001eb00c4
:105a9400822d2000a12d2000a083200008010700f2
:105aa4008f87e900806d2000801f78009701200017
:105ab40086c0b3008082eb0044c0b3008001eb00d9
:105ac400822d2000a12d200000852000fc0007006d
:105ad4008f87e900a06c2000801f7800a7002000b9
:105ae4000043eb008082eb0044c0b3008001eb0074
:105af400822e2000a12e200060862000f0000700e6
:105b04008f87e900006d2000801f780017012000b6
:105b140086c0b3008082eb0054c0b3008001eb0068
:105b2400822e2000a12e2000c0872000e400070060
:105b34008f87e900c06d2000801f7800d701200006
:105b440086c0b300f5002000f4c0b300234e20004b
:105b5400822c2000a12c200020892000d8000700de
:105b64008f87e900006d2000801f78000701200066
:105b74000043eb008082eb0034c0b3008001eb00f3
:105b8400822e2000a12e2000808a2000cc00070055
:105b94008f87e900206c2000801f780027002000f8
:105ba4000043eb008082eb0084c0b3008001eb0073
:105bb400822d2000a12d2000e08b2000c0000700d2
:105bc4008f87e900c06c2000801f7800c700200088
:105bd4000043eb008082eb00b4c0b3008001eb0013
:105be400822d2000a12d2000408d2000b40007004c
:105bf4008f87e900406c2000801f78004700200058
:105c04000043eb008082eb0094c0b3008001eb0002
:105c1400822d2000a12d2000a08e2000a8000700c6
:105c24008f87e900206c2000801f78003700200057
:105c340086c0b3008082eb00a4c0b3008001eb00f7
:105c4400822d2000a12d2000009020009c00070040
:105c54008f87e900a06c2000801f7800b700200027
:105c640086c0b3008082eb000042eb008001eb00b1
:105c7400822d2000a12d20006091200090000700bb
:105c84008f87e900806d2000801f78008701200045
:105c94000043eb008082eb0014c0b3008001eb00f2
:105ca400822d2000a12d2000c09220008400070036
:105cb4008f87e900606d2000801f78007701200045
:105cc40086c0b3008082eb0024c0b3008001eb00e7
:105cd400822d2000a12d20002094200078000700b0
:105ce4008f87e900606d2000801f78006701200025
:105cf4000043eb008082eb0034c0b3008001eb0072
:105d0400822d2000a12d2000809520006c0007002a
:105d14008f87e900006c2000801f78008003eb006f
:105d24000043eb008002eb000042eb00234e200016
:105d3400822c2000a12c2000c09d200060000700c0
:105d44008f87e900006c2000801f78001700200076
:105d540086c0b3001500200014c0b300234e2000f9
:105d6400822c2000a12c2000609c200054000700fd
:105d74008f87e900c06c2000801f7800d7002000c6
:105d840086c0b3002500200024c0b300234e2000a9
:105d9400822c2000a12c2000009b2000480007003a
:105da4008f87e9000000eb00801f78008083eb0000
:105db4000043eb003500200034c0b300234e200024
:105dc400822c2000a12c2000a09920003c00070078
:105dd4008f87e900c06d2000801f7800c701200074
:105de4000043eb004500200044c0b300234e2000d4
:105df400822c2000a12c20004098200030000700b5
:105e04008f87e900206d2000801f78002701200083
:105e14000043eb005500200054c0b300234e200083
:105e2400822c2000a12c2000e096200024000700f2
:105e34008f87e9000000eb00000f780007003700af
:105e44001e0078007600b90080007800a08320004e
:105e540000804000460007001e0fe8001e00780086
:105e6400ed0f5000f6ff36000000eb00000f780045
:105e7400070037001e0078007600b9008000780023
:105e8400e096200000804000950007001e0fe80007
:105e94001e007800e50f5000f6ff3600002e2000ab
:105ea400001988002223ef0000c420002019880074
:105eb4002823ef0021e3a8000080fa000000060078
:105ec4001000fa00000f78001107980022079800cc
:105ed40033079800044f980055079800464f9800e0
:105ee400770798001e0078009e0090000108780053
:105ef4001e007800ae009000110098001e0078008b
:105f0400be009000210098001e0078008e4890008a
:105f1400614098001e007800de0090004100980067
:105f24001e007800ce48900021489800fe009000a2
:105f34001e007800610098001e007800ceb897001b
:105f4400710098001e0078008000eb0001089800a2
:105f54001e0078008000eb00110898001e007800f5
:105f64008000eb00210898000080fa000000060081
:105f74000200fa00000f78001e0078002000900054
:105f84000000e0000d0032001e00780020009000a8
:105f94009e007800a1009000110178009e00780016
:105fa400e14090008180fb00130020008118dd0097
:105fb4008180ea0081006100010878001e007800f9
:105fc400100090009e00780091009000110178006c
:105fd4009e007800e14090008180fb0013002000c7
:105fe4008118dd0082807000010878001e007800ae
:105ff4008000eb00110898001e007800c1cf220039
:10600400210898000080fa00000006000200fa004f
:10601400000f78001e007800200090000000e000cf
:106024000d0032001e007800200090009e007800d1
:10603400a1009000110178009e007800e1409000da
:106044008180fb00130020008118dd008180ea00bc
:1060540081006100010878001e00780010007800bb
:106064009e00780091007800110178009e0078006d
:10607400e14090008180fb00130020008118dd00c6
:106084008180ea0081006100010878001e00780028
:10609400100090009e00780091009000110178009b
:1060a4009e007800e14090008180fb0013002000f6
:1060b4008118dd008180ea00810061000108780018
:1060c4001e00780081cb2200110898001e00780081
:1060d400c1cf2200210898000080fa0000000600c9
:1060e4000200fa00000f78001e00780020009000e3
:1060f4000000e0001f0032001e0078001000900035
:106104009e00780091009000110178009e007800b4
:10611400e14090008180fb00130020008118dd0025
:1061240082807000010878001e0078002000900032
:106134009e007800a1009000110178009e00780074
:10614400e14090008180fb00130020008118dd00f5
:1061540082807000010878001e0078008000eb0047
:10616400110898001e007800e1d12200210898004f
:1061740001003700000000000080fa000000060063
:106184000200fa00000f78001e00780090089000ca
:1061940080cb2200808f50000c003a001e00780053
:1061a400100078009e0078009100780011017800ba
:1061b4009e007800e14090008180fb0013002000e5
:1061c4008118dd0082807000010878000080fa00e8
:1061d400000006000200fa00000f78001e0078009c
:1061e4009008900080cb2200808f50000d003a0070
:1061f4001e007800100078009e007800910078005e
:10620400110178009e007800e14090008180fb003d
:10621400130020008118dd008180ea008100610004
:10622400010878000080fa00000006000200fa006d
:10623400000f78001e0078009008900080cb2200a8
:10624400808f50000c003a001e0078001000780087
:106254009e00780091007800110178009e0078007b
:10626400e14090008180fb00130020008118dd00d4
:1062740081006900010878000080fa00000006002f
:106284000400fa00000f7800110798001e0078003f
:10629400100890000000e000050032001e007800a5
:1062a400100990009e0090001e007800020001007a
:1062b4000080fa00000006000200fa00000f7800d7
:1062c4001e007800200890000000e0000500320065
:1062d4001e007800a00890001e0078000100010054
:1062e400010037000080eb000080fa000000060087
:1062f4000000fa00a083200080418800008520006f
:106304009041880060862000a04188008041800080
:106314003eff0700904180003cff0700a041800041
:106324003aff070080418000aaff070090418000e7
:10633400a8ff0700a0418000a6ff07000080fa0024
:10634400000006000800fa000040eb0040479800f7
:106354000040eb00504798000000eb00000f78006d
:106364001a0037000000eb001007980013003700f4
:106374001e00900067001000110020000008dd00de
:10638400804078004e40900000c060006047980054
:10639400804180008fff07006e4090008080fb00ea
:1063a400a0418000b6ff07008041800074ff070011
:1063b4001e0090000000e800100798001e009000e6
:1063c400e70f5000eaff34001e0fe8001e007800bb
:1063d400e10f5000e3ff3400904180007dff07008f
:1063e4009041800066ff07000080fa00000006006c
:1063f4000800fa00300798003e00900000f0a70063
:106404000000ea00000f78000000eb00100798007d
:10641400130037009e007800a000200000017800df
:10642400110009008200d8008000fd0020079800b8
:106434008040eb002e009000120007009e007800c0
:10644400a000200000017800110009008200d8009b
:10645400000f78001e0090000000e800100798006c
:106464001e009000e10f5000eaff340090418000cc
:1064740058ff07009041800041ff07000080fa00a8
:10648400000006000a00fa0030079800014f980047
:106494000040eb00204798000040eb003047980094
:1064a4003e009000cf80de00320620000300200072
:1064b400820f5000838f5800a2003e00006001004c
:1064c4009000370062003700660037006a0037002a
:1064d4006e00370072003700760037007a0037000c
:1064e4007e003700820037009600370095003700a1
:1064f4009400370093003700920037009100370072
:10650400900037008f0037008e0037008d00370071
:106514008c0037008b0037008a0037008900370071
:106524008800370087003700860037008500370071
:106534008400370083003700820037008100370071
:10654400750037007f0037007e0037007d0037007c
:106554007c0037007b0037007a0037007900370071
:106564007800370077003700760037007500370071
:10657400740037006f003700720037007100370075
:10658400700037006f0037006e0037006d00370071
:106594006c0037006b0037006a0037006900370071
:1065a4006800370067003700660037006500370071
:1065b4006400370063003700620037006100370071
:1065c400600037005f0037005e0037005d00370071
:1065d4005c0037005b0037005a0037005900370071
:1065e4005800370057003700560037005500370071
:1065f4005400370053003700520037005100370071
:10660400500037004f0037004e0037004d00370070
:106614004c0037004b0037004a0037004900370070
:106624004800370047003700460037004500370070
:106634004400370043003700420037004100370070
:10664400400037003f0037003e0037003500370078
:10665400be40900000c6b30000c070002047980000
:1066640038003700be409000d0c5b30000c07000b1
:106674002047980033003700be40900050c7b30055
:1066840000c07000204798002e003700be409000e4
:1066940060c6b30000c0700020479800290037008e
:1066a400be40900070c3b30000c070002047980043
:1066b40024003700be409000f0c3b30000c0700057
:1066c400204798001f003700be40900010c6b3005a
:1066d40000c07000204798001a003700be409000a8
:1066e400f0c7b30000c070002047980015003700c1
:1066f400be40900070c7b30000c0700020479800ef
:1067040010003700be409000b0c7b30000c0700056
:10671400204798000b0037003e4090002047980027
:10672400080037003e409000c041b3002047980065
:10673400040037003e4090000024a0002047980049
:10674400000000000e489000e14f500004003a00a1
:10675400ae40900000c8b30000c07000204798000d
:106764000000eb00000f78001100370071002000da
:106774001e805000110020000008dd0080407800d9
:106784002e40900000c06000404798008041800087
:1067940090fe07004e4090008080fb00a0418000e6
:1067a400b7fe07008041800075fe07001e0fe80059
:1067b4001e007800e70f5000ecff34000080fa0060
:1067c400000006000000fa0074c0b300634e20000d
:1067d400822d2000a12d2000008020002000070031
:1067e4000042eb00a34e2000822e2000a12e2000a8
:1067f400808020001a00070014c0b300a34e2000bc
:10680400822e2000a12e2000008120001400070009
:10681400f4c0b300434e2000022d2000212d20009f
:1068240080812000ad000700c4c0b300434e2000a7
:10683400022d2000212d200000822000a700070047
:10684400c4c0b300234e2000822c2000a12c2000c1
:1068540080822000a10007000080fa0000000600ea
:106864000a00fa00000f7800110798002207980028
:1068740033079800044f98001e0078009e00900093
:10688400010878001e007800ae0090001100980006
:106894001e007800be009000210098001e007800c1
:1068a4008e489000614098001e00780020009000ff
:1068b4009e007800a1009000110178009e007800ed
:1068c400e14090008180fb00130020008118dd006e
:1068d4008180ea0081006100010878001e007800d0
:1068e400100078009e007800910078001101780073
:1068f4009e007800e14090008180fb00130020009e
:106904008118dd008180ea008100610001087800bf
:106914001e007800100090009e0078009100900006
:10692400110178009e007800e14090008180fb0016
:10693400130020008118dd008180ea0081006100dd
:10694400010878000080fa00000006000200fa0046
:10695400000f78001e007800100078009e00780078
:1069640091007800110178009e007800e1409000c9
:106974008180fb00130020008118dd0082807000fc
:10698400010878000080fa00000006000200fa0006
:10699400000f78001e007800100078009e00780038
:1069a40091007800110178009e007800e140900089
:1069b4008180fb00130020008118dd008180ea0043
:1069c40081006100010878000080fa0000000600e0
:1069d4000200fa00000f78001e0078001000780012
:1069e4009e00780091007800110178009e007800e4
:1069f400e14090008180fb00130020008118dd003d
:106a040081006900010878000080fa000000060097
:106a14000400fa00000f7800110798001e0090008f
:106a24000000e0000d0032001e0078001000780025
:106a34009e00780091007800110178009e00780093
:106a4400e14090008180fb00130020008118dd00ec
:106a540082807000010878000d0037001e00780065
:106a6400100078009e0078009100780011017800f1
:106a74009e007800e14090008180fb00130020001c
:106a84008118dd008180ea0081006100010878003e
:106a94000080fa00000006000200fa00000f7800ef
:106aa4001e00780010007800900078001e00780026
:106ab400604090000080fb00120020000010dd0008
:106ac4000080600000f0a7000000ea000000ea0077
:106ad4004f00de000080fa00000006000a00fa0001
:106ae400000f7800110798002207980033079800d8
:106af400044f98001e0078009e0090000108780062
:106b04001e007800ae009000110098001e0078006e
:106b1400be009000210098001e0078008e4890006e
:106b2400614098001e007800200090009e007800cc
:106b3400a1009000110178009e007800e1409000cf
:106b44008180fb00130020008118dd008180ea00b1
:106b540081006100010878001e0078001000900098
:106b64009e00780091009000110178009e0078004a
:106b7400e14090008180fb00130020008118dd00bb
:106b840082807000010878000080fa00000006008e
:106b94000200fa00000f78001e0078001000780050
:106ba400900078001e007800604090000080fb0098
:106bb400120020000010dd000080600000f0a7003b
:106bc4000000ea000000ea004f00de000080fa0046
:106bd400000006000200fa0000102000203a88009d
:106be400f8fe070013f70700a1fb0700fbf80700f6
:106bf400bffd07000200200003f0230040b2200084
:106c040077f7070040b2200044f807000000eb00cb
:106c1400000f7800010037000000000040b220009f
:106c24005cf807000000e0000500320040b22000dc
:106c340069f807000080200065ff0700c1fd070018
:106c440080812000d2ff07000000e000f2ff3a003c
:0c6c540020022000e6fd0700f0ff3700e2
:020000040000fa
:106c6000be0b00001000000082000000bd3786004f
:106c700033bd37000635bd0037863600bd37860088
:106c8000370000000e0b00006e00000080000000c6
:106c90000008000030000000800000003a080000fa
:106ca000b801000080000000f20900001c01000093
:106cb0008000000036080000040000008000000092
:106cc0007c0b000042000000800000003008000043
:0c6cd00006000000800000000000000032
:020000040000fa
:106cdc000200fa00000f78001e0078004800de0069
:106cec001e0f68001e0078004400de001e0f6800b6
:106cfc001e0078004200de001e0f68001e007800a7
:106d0c000000d1001e0f68001e00780000407800c3
:0c6d1c00614060000080fa0000000600ea
:020000040000fa
:086d28000040da000000fe004b
:00000001FF
