:020000040000fa
:080000001011040000000000d3
:020000040000fa
:102220002fc320000eff27000e01880000000000d1
:10223000000020000000e000020032000001200049
:10224000200288000c000700c06b23000100200062
:102250000f000700000020000000e0000200320034
:1022600000000200000000008237020000000000b1
:102270000040da000000fe00200120000000e00025
:1022800002003200002020009001880000000600bb
:10229000a1028800800078000000eb001a003700df
:1022a000e280400054a0b4009101ba00e2804000f6
:1022b00054a0b4009102ba00e280400054a0b400df
:1022c0000002eb00472bde00f507b200a6018800f4
:1022d000602ce10008003a000049eb000201e80030
:1022e000020039003420ec0002f0a0008301e90074
:1022f000f9ff3e00040037006128e10001003200d0
:102300000082eb00040007001101ba000200e000a7
:10231000e3ff3a000000060004d0a300e20f4900ea
:102320001c003900810278003549ba000201e8003a
:10233000020039003420ec0002f0a0008301e90023
:102340000f0032002549ba000201e80002003900fe
:102350003420ec0002f0a0008301e9000800320004
:102360000400e0000600320015c9ba000201e800ce
:10237000020039003420ec0002f0a0008301e900e3
:102380008180e80054a0b4000300e000e2ff3a00be
:10239000000006009102ba00055978008301e900a7
:1023a000f7ff3200c82ade00055978008301e900f2
:1023b000f3ff32000400e000f1ff320011d9ba004f
:1023c000eeff37003630040000000000f22f04005a
:1023d000000000005830040000000000241d04002c
:1023e00000000000661d040000000000481d0400fd
:1023f00000000000561e04000000000094150400b8
:1024000000000000201b0400000000000000040089
:10241000000000000a00fa0011002000b1bf9f0078
:10242000c0bf9f006a805700740507004fb897002f
:102430000080fa00000006000a00fa0051002000a7
:10244000b1bf9f00c0bf9f006a8057006d050700a5
:102450005fb897000080fa0000000600889fbe0069
:1024600080047800806180000000e00004003a00f1
:102470000e0007000084eb000000e00008003500bb
:10248000886180000900e000050032000900440076
:10249000060007000000e00001003d000084eb00a2
:1024a000080078004f04be0000000600800078009d
:1024b0000100e00003003a00000020008061880075
:1024c000000005000080eb0002002000828f500019
:1024d00002003e00816188000000eb000000060061
:1024e00003f0a200889fbe008a9fbe008c1f780068
:1024f000f7000700fe0033006450e1004f00320097
:102500006420e1005200320003826c0007003b00af
:102510000905d0000306d000820f54000c065d00b0
:1025200002003900020032008901780003067800b9
:102530008582550004003d000003fd008103fd007d
:102540008502ea008b854200840f720002003b0086
:1025500060001000e08018006011b8000005eb007a
:102560007a28e1000a00390006007800c75ddd0026
:10257000f707b200878075002d0037008281710057
:102580000a017800610560008180d1000080d300dd
:102590008502e900f9ff3b000604400087844800fb
:1025a00002003b0060041400e0841c000988a300c2
:1025b000070032008a81710082817100610164002c
:1025c0008904d1000884d3008b05e8001700370088
:1025d0000978a30013003a000b00e0001300340058
:1025e0008b05e9000804440089844c000a44740007
:1025f0000978a3000d003a000b00e000070034004a
:102600008b05e9000804440089844c0001003a006d
:102610000b0020000978a300f7ff32000001eb0057
:1026200002003700828171000a0178006d00070006
:102630000cf0a70001f0a000b60037006420e10014
:1026400002003a00838f6c00b60033000801be0020
:102650000200be00af003700889fbe008a9fbe0008
:102660008c1f78009a000700a100330003866c00dd
:102670006450e1002e0032006420e100330032009b
:102680006150e1002f0032006120e1003100320092
:1026900085855500eb07b0000900200008042000e4
:1026a000050037000804440089844c000a0031000a
:1026b0000603430087834b000001530081815b00c8
:1026c000f8ff33000203be000800a0000804440025
:1026d00089844c00f6ff3900c639dd0083017300a0
:1026e00001003200130020008904d1000884d300c7
:1026f0000998a300050032000800a7000300a0000d
:102700008904d1000884d3008b05e8008904d10036
:102710000884d3000001eb000281d20031000700e1
:1027200001f0a1000cf0a70001f0a0007900370033
:102730006420e1007b0032000801be000200be0000
:10274000f7ff37006120e100760032006000b8003a
:10275000f3ff37000000200001f82700f0ff3700ea
:1027600014002000a6003700f4ff2f00a40037005b
:102770000001be00410007000470a70003f0a100a3
:1027800003f8a30013003a006509b10010003200fd
:10279000090035006928e100020035000100280029
:1027a0000000050000004000818048008502e9002b
:1027b000fcff3a0000000600f88f420005003500db
:1027c0008100d1000080d3008502e800fcff3a00c0
:1027d000000006008000eb00000005006011b8005a
:1027e000a200370081002000618055000b003d00f1
:1027f0000b00200061fe2f000100e1001d003400ed
:1028000082817100610164008904d1000884d300d1
:102810000000e800faff3a00710020006100640047
:1028200003007000020060000900320061044400ef
:10283000e0844c000988a500050032008b05e80003
:102840006808e10002003a008904d1000884d3003e
:10285000f20f20000258e10005003d00c75ddd00d9
:10286000f907b200898075000800780000000600b2
:102870000bf827008b00780000000500c70ade0077
:10288000f107b200f50fb20008003200e1cf4200bc
:10289000020032000170a00024000500810f7000ca
:1028a000010032000408050044000500810f70009b
:1028b00002003a00140005008502e9000000400013
:1028c00081c04800fcff3b000170a000240005000f
:1028d0000004be00e9ff07000003be000405be00bf
:1028e0000200be00e5ff0700844f750000000600ef
:1028f0000200be006450e100050036006420e100e3
:10290000020036000968a30001003a000800be007a
:102910000160a0004f0678004f05be004f04be00c6
:1029200000000600f0ff2f00f1ff2700f9ff37003d
:10293000889fbe008a9fbe008c1f7800e4ff0700be
:10294000ebff330003866c006450e100240032008a
:102950006420e100270032006150e10022003200d3
:102960006120e100210032008b854200eb07b100bd
:102970000134b800003ab8000804420089844a00d3
:10298000013ab8000030b8008880400009014a00d0
:10299000040033000000400081804800020149002b
:1029a0008b05e900c909dd008301700001003200d8
:1029b00013002000c814de004814dd004709de00c3
:1029c0001200b200c808de000884700085ff07000e
:1029d00001f0a1000cf0a70001f0a000cdff37002e
:1029e0006120e100cfff32000801be000200be00fe
:1029f000f7ff37006150e100fcff3a00c9ff3700e4
:102a0000889fbe008a9fbe00841f7800b0ff070029
:102a10004f00780011003300f0ff2f00838f6c000f
:102a200006003b00040565000a00a7000800370007
:102a300009f0a6001000200008003700820f5400a3
:102a4000838f5c00030039001000200001003e006d
:102a50000000200009f0a7000000ea004f05be00ba
:102a60004f04be000000e00000000600889fbe008a
:102a70008a9fbe000082700004027100048271000f
:102a8000260032000004be000200be006011b80043
:102a90006b092000950220000182cf000a00390056
:102aa0000541b1000082cf00070039000541b100a7
:102ab0000982cf00040039000541b1000882cf002f
:102ac000010039000541b1000542520012003200f8
:102ad0000a003b0082817100610164008100d10025
:102ae0000080d3008984d3000884d3008b05e800dc
:102af0000442e800f7ff3a000700370008044400ea
:102b000089844c0000004800818048008b05e90062
:102b10000442e900f9ff3a0032ff07004f05be000a
:102b20004f04be0000000600889fbe00000478002d
:102b3000010078008204780088017800090178009b
:102b400011002000ef000700890f50000100320043
:102b50000004eb00080078004f04be0000000600ef
:102b60000000fa00e88157004fb9970001b3200038
:102b700040592100020007000080fa000000060012
:102b80006200fa00889fbe008a1f78000005780066
:102b900081047800020478008300780080f92f0017
:102ba0000f004000510207009a979f00a9979f00cd
:102bb0000000eb00b09f9f001885fb008a04fb001b
:102bc0000a05ea004f55de0050022000808f5400b5
:102bd0000d003200e10f55000b003a000a017800a9
:102be000880078002f9097009f91970003000100c4
:102bf000a0979f000000e0008e0032003f989700f1
:102c00000000e800b09f9f000a044400500220002a
:102c1000808f5400040032000900e000e6ff3a0013
:102c20003f989700840037000000eb00909f9f00c2
:102c3000809f9f00f0979f00e0979f00d0979f0094
:102c4000c0979f000700370021c1200001005000fd
:102c50000000400061c0200061007800df9897000c
:102c600001007000d09f9f0088047800090478005c
:102c7000384578008a00fb0020c1200006010700cb
:102c80000000e000f0ff3a00a1c2b300814f550000
:102c90000e003a00cf8897000180e900c08f9f00a6
:102ca00010007800c09f9f000000e00005003d007c
:102cb0000000ea00c09f9f005f9897000020a000de
:102cc000d09f9f000904e8000f003700c09f9f00bd
:102cd0000000eb0005003700f2ff2700820f5000d4
:102ce000020032006a01b900028040000904780045
:102cf00088047800b900fb000103b100e98f50009f
:102d0000f5ff3600c09f9f00e0c2b300984f10004f
:102d1000020032000080eb0019003700a0c2b300af
:102d2000d84f100007003a00cf8897000180e900d3
:102d3000c08f9f0010007800a09f9f000804e8004b
:102d4000100037000000eb00a09f9f008800780073
:102d500005003700f3ff2700830f50000200320008
:102d60006a02b9000400410001047800880078007c
:102d70003101fb000203b100e90f5100f5ff3600fd
:102d8000a09f9f00984478008900fb00e0bf2000ce
:102d9000c10007000000e000020032000804e80063
:102da000010037008044eb00c97f9f0080c6b3005c
:102db00080cf540004003a0098cf14000a003a0073
:102dc0006640500006003700c0c6b30080cf5400f4
:102dd00005003a0098cf140003003a006540400017
:102de000c07f9f000804e8001801fb00e3fb2f00f0
:102df0008f81410081f92f008f804000a0f92f00c2
:102e00000f004000100007000000e00009003a0039
:102e1000e1fb2f008f804000a0f92f000f00400041
:102e2000f60007000000e000020035000804e8009a
:102e300061ff37000080eb004f0578004f04be00b3
:102e40000080fa0000000600889fbe008a1f7800fc
:102e50000004780030c5b300804f510008003200f4
:102e600030c7b300804f51000500320051c2b3009b
:102e700078009000814f510017003a00140037008d
:102e80001180e90080087800100578006a04980035
:102e9000d80c90000900e00004003d000a00780012
:102ea00089000700800478000700370009017800d6
:102eb0008000eb000a007800660007000000e000d8
:102ec000010032008a045000190c980009003700f4
:102ed0008271780005003700808141000204e00023
:102ee00001003a0001417800824978000000e800c2
:102ef000700498000000eb004f0578004f04be00fe
:102f000000000600889fbe008a9fbe008c9fbe0006
:102f10008e1f780000067800010478000200780017
:102f2000830478000881b900020778000200e000fd
:102f3000420032000800e0004100320082057800c3
:102f4000c900900069009000808f50000400390093
:102f500009007800620007000000e0002900350049
:102f600000402000190060000a0032000b017800c8
:102f7000a10020000c0078003600070080067800d1
:102f80000d00e00006003200610516000a854600cb
:102f9000040037000b0578008006eb0001003700c5
:102fa0000b05780049009000e900900080805000f7
:102fb0008a8f500002003100010578008006eb0086
:102fc0000a0178008c0078002c0007008a855500e3
:102fd000490090000a004000c00498000d00e00085
:102fe0000400320009007800a50107000000e0009d
:102ff00004003a000b00e000020032000a0646001e
:10300000cfff37000080200019006000020032006e
:10301000090078009a01070000c020001900600034
:103020000200320049009000e00498008b05570030
:10303000110009008885d800010037000000eb006e
:103040004f0778004f06be004f05be004f04be007c
:103050000000060003003700b0cf1000050032006a
:103060000201e900800178000200e000faff3a0066
:1030700000000500030078000000060080017800d1
:1030800002003700b15978000201e9000200e000b7
:10309000fcff3a0000000600020037000304e000d5
:1030a000060032000001780002007800b04178008c
:1030b00081cf5100f9ff3a00010037000001eb0019
:1030c000020078000000060080007800010178000e
:1030d0003104e000fdff3a0000005100000006004e
:1030e000889fbe008a1f780000047800c800900006
:1030f000680190000000eb00828f50003c00390016
:10310000180078002200290002016000e20f51003f
:1031100007003200012024000000e00001003d0013
:1031200001202000008c70000080eb003000370090
:103130000200260002006000820f500009003a00e1
:1031400038009000808f5000060039000800780099
:103150004b010700800078000080eb000100e000d8
:1031600023003a001805780000c020000000650028
:1031700018003a00a80490006002200008004000f7
:10318000808f540013003a0000202000e701070060
:10319000200498000000e00005003a00290498008f
:1031a000490498008904e8003904980008003700b1
:1031b0000a60a0000a0c780040049800012020005a
:1031c0008080400031049800400c9800500c98001a
:1031d000ca000700280090005004980038009000b2
:1031e0006004980000002600180c70000000eb003e
:1031f0004f0578004f04be00000006000400fa00ee
:10320000889fbe008a9fbe008c1f78000004780053
:1032100001067800f80d9000780090008085550038
:10322000080890008085550018089000808555009a
:10323000280890008085550038089000808555004a
:1032400048089000808555000002220090bf9f0032
:1032500000032300a0bf9f00081090000028a300d7
:1032600015003a000b00e000130034000b05780055
:103270008a047800e20f5500010036002900200082
:10328000c801900009017800ee80570058009000b6
:1032900003000100500498000000e0008c003200a0
:1032a0006808900009004000600c9800090555006e
:1032b0004240a900eeff3c00780190000200e000cf
:1032c0000c003400c80190008c0078005800900079
:1032d00003000100500498008080eb000000e00033
:1032e0007c003200e80890007800900000804000e8
:1032f000600c9800880c90000900e0001100340078
:1033000009057800e28f5400010036002a002000f1
:10331000c80190000a017800ec8057005800900026
:1033200003000100500498000000e0006800320033
:10333000680890000a004000600c98008a845400dd
:10334000edff3700180990000200e0000c00340087
:10335000c8019000e80090005800900003000100b0
:10336000500498008080eb000000e000590032001b
:10337000e80890001808900000804000600c980059
:10338000a80c90000900e000110034000905780045
:10339000e28f5400010036002a002000c80190008e
:1033a0000a017800ec8057005800900003000100eb
:1033b000500498000000e0004500320068089000ca
:1033c0000a004000600c98008a845400edff37002a
:1033d000380990000200e0000e003400e800900080
:1033e0001808900080804000c801900058009000ac
:1033f00003000100500498008080eb000000e00012
:1034000034003200e8089000380890000080400046
:10341000600c9800c80c90000900e0001100340016
:1034200009057800e28f5400010036002a002000d0
:10343000c80190000a017800ec8057005800900005
:1034400003000100500498000000e000200032005a
:10345000680890000a004000600c98008a845400bc
:10346000edff3700081090008000eb000028a3005b
:10347000180032000b00e000160034008b047800c6
:1034800009057800e28f5400010036002a00200070
:10349000c80190000a017800ee80570058009000a3
:1034a00003000100500498000000e0000800320012
:1034b000680890000a004000600c98008a8454005c
:1034c0004240a900eeff3c008000eb000100370005
:1034d0008080eb00010078004f0678004f05be00a9
:1034e0004f04be000080fa000000060001087800ca
:1034f0000000060000b221009b003700881f780002
:10350000c8c220001804e00003003a00f9ff0700d9
:1035100020c0b300004c78004f0478000000060083
:10352000889fbe000004780008007800540007005f
:1035300080047800000420001800600002003200bf
:1035400028009000940007000000eb002004980081
:10355000384090000004e000050035000000fb004a
:10356000acfb07000000e000010032008084eb00ab
:10357000181090000000e00008003200aefb0700c9
:103580000000e000010032008084eb001810900081
:10359000810007000000eb001014980000082000d4
:1035a00018006000150032000001eb006000b80058
:1035b00003b820000202d00063027a00880f520094
:1035c00005003a0000004000818048000080410072
:1035d0000008eb000600370061004000e080480072
:1035e0000201e800e80f5000e08f5800f0ff3a00b9
:1035f00008007800680007000e003700000c780013
:1036000000c0eb0030449800600220000800400039
:10361000200498004004980050049800400c980042
:1036200060049800500c98007004980076004400e4
:10363000000c9800090078004f04be00000006004e
:10364000881f78000004eb006140b800e2ff2f0003
:10365000f3ff2f00ed000700e2b8200062007800c1
:103660000000e00001003200adff07000804e800a0
:10367000e80f5400f4ff3a004f0478000000060001
:10368000889fbe00000478000800e0000e003a00a9
:103690008004eb008800d00000b8200061007800b2
:1036a0000000e00004003200f5ff07000000e00029
:1036b00001003d008084eb000804e800e80f54009e
:1036c000f4ff3a00250037000000220018006000d7
:1036d0008004eb0021003200a80490000f003700a6
:1036e00009015100384090000000fb00890078007b
:1036f000810207000000e00007003c002800900065
:103700004004980060049800500c98001890a000a5
:103710008084eb0011003700808444004801900051
:10372000828f5400eeff390028009000400498007a
:103730009800780002c020000281600001003a0079
:103740003800900001e8a3000200320060049800f5
:1037500001003700500c98008004eb00090078004d
:103760004f04be0000000600010020000100e00040
:1037700008003200010080000100e0000500320076
:103780008100e900010088008100d0000200800073
:1037900000b17800000006000000e0002f003200b9
:1037a000c0017800e38f51002c0036000308a3000d
:1037b0002a003a00516180000100e000020032005e
:1037c000810f500004003100110098005061880002
:1037d0001600370082007800110190000200e0001e
:1037e00002003200800f5100faff39001102780008
:1037f00084824000850f500018003900808f5200ed
:1038000003003a00830842000100780007003700f7
:103810000200e0000300320083014000830f5100ea
:103820000e0039001200980090009800900090005f
:103830000100e0000900320010014000828f5000ba
:1038400006003a0082c220000009eb001001780057
:10385000110841009100900011009800000006003e
:10386000889fbe0000047800416180000100e000f4
:1038700002003200010078000d0037005161800025
:10388000a0c2200004003700910f5400250036002c
:103890000180e800910090000100e000faff3a008a
:1038a00010003700920f54001e0036000280e8001e
:1038b000100178000200e000faff3a0011017800e0
:1038c00051618000a0c2200004003700910f540015
:1038d000140036000180e80091009000828f5000b3
:1038e000faff3a0079618000888f540001003100ae
:1038f0008804780009007800360007000000e00026
:1039000004003a00888f5400050032008904d10079
:10391000f5ff3700091878009fff0700d2ff370036
:103920000000eb004f04be0000000600881f780076
:10393000630440000800a1008000eb00800f5400e9
:1039400021003600e30f540001003e004800200033
:1039500008007800c2ff07008000eb000000e000d4
:1039600019003200900078009101780064815100c4
:10397000880f510003003100110190000208780007
:10398000070037000881400002087800910190008c
:1039900013019800100178001109140088087800bc
:1039a000100178000000eb000200e000040032008b
:1039b000920190000300e000010032000280e80064
:1039c000406188008180e800010078004f047800a1
:1039d00000000600800078000000eb000100e0001d
:1039e00005003400010078009cfa0700e10f400058
:1039f00001003a000000eb000000060000c0da0001
:103a00000000060000c0da0000000600020ab9004b
:103a1000001bb9000200b800810042008100430091
:043a2000000006009c
:020000040000fa
:020000040002f8
:04aff400031c00003a
:020000040000fa
:020000040002f8
:04aff8000f890000bd
:020000040000fa
:020000040002f8
:04affc007f3e000094
:020000040000fa
:102000001011040000000000d037040000000000a0
:10201000d037040000000000d037040000000000aa
:10202000d037040000000000d0370400000000009a
:10203000d037040000000000d0370400000000008a
:10204000d037040000000000382b0400000000001e
:10205000d037040000000000d0370400000000006a
:10206000662b040000000000942b04000000000018
:10207000d037040000000000d0370400000000004a
:102080003a1f0400000000000c1f040000000000c4
:10209000d037040000000000d0370400000000002a
:1020a000d037040000000000d0370400000000001a
:1020b000d037040000000000d0370400000000000a
:1020c000d037040000000000d037040000000000fa
:1020d000d037040000000000d037040000000000ea
:1020e000c22b040000000000f02b040000000000e0
:1020f000d037040000000000961f0400000000001c
:10210000681f040000000000d03704000000000039
:10211000d037040000000000d037040000000000a9
:10212000d037040000000000d03704000000000099
:10213000d037040000000000d03704000000000089
:10214000d037040000000000d03704000000000079
:10215000d037040000000000d03704000000000069
:10216000d037040000000000d03704000000000059
:10217000d037040000000000d03704000000000049
:10218000d037040000000000d03704000000000039
:10219000d037040000000000d03704000000000029
:1021a000d037040000000000d03704000000000019
:1021b000d037040000000000f21f040000000000ff
:1021c000c41f040000000000d0370400000000001d
:1021d000d037040000000000d037040000000000e9
:1021e000d0370400000000004e2004000000000072
:1021f0002020040000000000d03704000000000090
:10220000d037040000000000d037040000000000b8
:10221000d037040000000000d037040000000000a8
:020000040000fa
:1000080004100000081000000c1000001010000080
:10001800141000000c1100000c1100000c1100005d
:10002800181000001c100000201000002410000010
:100038000c110000281000002c10000030100000e7
:1000480034100000381000003c1000004010000080
:1000580044100000481000000c1100000c110000b2
:100068004c10000050100000541000005810000000
:100078005c1000000c11000060100000641000000b
:100088000c110000681000006c10000070100000d7
:1000980074100000781000007c1000008010000030
:1000a80084100000881000000c1100000c110000e2
:1000b8000c1100008c10000090100000941000003b
:1000c800981000009c100000a0100000a410000070
:1000d800a8100000ac1000000c1100000c1100006a
:1000e8000c110000b0100000b41000000c1100004a
:1000f8000c110000b8100000bc1000000c1100002a
:100108000c1100000c1100000c1100000c11000073
:100118000c1100000c110000c01000000c110000b0
:100128000c110000c4100000c8100000cc10000022
:100138000c1100000c1100000c1100000c11000043
:10014800d01000000c1100000c1100000c11000070
:100158000c110000d41000000c1100000c1100005c
:100168000c110000d8100000dc100000e0100000a6
:10017800e4100000e8100000ec100000f01000008f
:10018800f4100000f8100000fc100000001100003e
:1001980004110000081100000c1100000c110000ef
:1001a8000c1100000c1100000c1100000c110000d3
:1001b8000c1100000c1100000c1100000c110000c3
:1001c8000c1100000c1100000c1100000c110000b3
:1001d8000c1100000c1100000c1100000c110000a3
:1001e8000c1100000c1100000c1100000c11000093
:0801f8000c1100000c110000c5
:020000040000fa
:103a24004c6f000077250000730a00000d000000b1
:103a34004869000067680000257300000a0d000053
:043a4400000000007e
:020000040000fa
:103a48000400fa00000f78002147980000000000e9
:103a58001e007800100090009000780000202000e0
:103a6800008060000000e000f9ff3a001e007800c6
:103a780020009000ae4090008180fb000108780093
:103a88000080fa00000006000200fa00000f78002b
:103a9800000000001e007800100090001000780060
:103aa800610060000000e000faff32001e007800ac
:103ab8003000900010007800004078000080fa0084
:103ac800000006000400fa00000f78002147980063
:103ad800000000001e007800d01090001e00780042
:103ae80020109000808f5000faff32001e007800ee
:103af800901090001e007800401090000080400058
:103b0800ae409000014878001e00780040109000f8
:103b18008000e8001e007800201090000001780066
:103b2800110009008280d8008000fd008000780024
:103b38001e007800411098001e0078005010900078
:103b48008000e8001e007800511098001e007800e0
:103b5800d01090001e00780030189000808f500020
:103b6800080039001e007800100090009e007800c0
:103b780091009000110178000140200082807000bf
:103b8800010878000080fa00000006000400fa002e
:103b9800100798001e009000500090009e009000b2
:103ba800d1009000110178009e009000e14890003b
:103bb8008180fb00130020008118dd008180ea006d
:103bc80081006100010878001e00900050109000ec
:103bd8000000e00025003a001e0090001000900050
:103be8009e0090009100900011017800f1bf2f0015
:103bf80081006100010878001d0037001e00900058
:103c0800901090001e00900030109000008040003e
:103c1800104f78001e009000301090008000e800df
:103c28001e0090002010900000017800110009008b
:103c38008280d8008000fd00800078001e0090007f
:103c4800311098001e009000501090008000e9008c
:103c58001e009000511098001e0090002000900057
:103c68009e80fb000108780001003700000000007a
:103c78001e009000100090009000780000202000a6
:103c8800008060000000e00004003a001e00900080
:103c9800501090000000e000d8ff3a000080fa00c1
:103ca800000006000400fa00100798000000000059
:103cb8001e009000201890000000e000fcff320079
:103cc8001e009000e01090001e0090000018900068
:103cd80000804000104f78001e00900000189000ef
:103ce8008000e8001e00900070109000000178002d
:103cf800110009008280d8008000fd008000780053
:103d08001e009000011898001e00900020189000d6
:103d18008000e9001e009000211898001e407800dd
:103d28000080fa00000006000200fa00000f780088
:103d38001e007800500090009e007800d10090008e
:103d4800110178009e007800f14890008180fb0006
:103d5800130020008118dd008180ea0081006100e5
:103d6800010878001b0037001e007800e010900062
:103d78001e00780010189000008040009e00780017
:103d8800b1009000910078008140780001487800e7
:103d98001e007800101890008000e8001e007800cf
:103da8007010900000017800110009008280d8008e
:103db8008000fd00800078001e007800111898002f
:103dc8001e007800201890008000e8001e0078008f
:103dd800211898001e00780010009000100078004c
:103de80061006000004078000004e0000600320036
:103df8001e007800a01890001e0078007010900037
:103e0800808f5000d8ff3a000080fa0000000600ba
:103e18003600f800809fbe00829fbe00849fbe00cf
:103e2800869fbe003200f8003400f8001000200021
:103e3800a001880000202000900188000000fa00fe
:103e4800c09e200051ff07000080fa003400f900ee
:103e58003200f9004f03be004f02be004f01be0002
:103e68004f00be003600f900004006003600f8009a
:103e7800809fbe00829fbe00849fbe00869fbe00ba
:103e88003200f8003400f80010002000a00188007b
:103e980000202000900188000000fa00c09e200049
:103ea800a1ff07000080fa003400f9003200f90091
:103eb8004f03be004f02be004f01be004f00be00c0
:103ec8003600f900004006003600f800809fbe006a
:103ed800829fbe00849fbe00869fbe003200f8000d
:103ee8003400f80010002000a00188000020200005
:103ef800900188000000fa0080a2200023ff07003c
:103f08000080fa003400f9003200f9004f03be00c7
:103f18004f02be004f01be004f00be003600f90040
:103f2800004006003600f800809fbe00829fbe0059
:103f3800849fbe00869fbe003200f8003400f8005f
:103f480010002000a00188000020200090018800b7
:103f58000000fa0080a2200073ff07000080fa002a
:103f68003400f9003200f9004f03be004f02be00d2
:103f78004f01be004f00be003600f90000400600a9
:103f88003600f800809fbe00829fbe00849fbe005e
:103f9800869fbe003200f8003400f80010002000b0
:103fa800a001880000202000900188000000fa008d
:103fb80040a62000f5fe07000080fa003400f90052
:103fc8003200f9004f03be004f02be004f01be0091
:103fd8004f00be003600f900004006003600f80029
:103fe800809fbe00829fbe00849fbe00869fbe0049
:103ff8003200f8003400f80010002000a00188000a
:1040080000202000900188000000fa0040a620004f
:1040180045ff07000080fa003400f9003200f9007b
:104028004f03be004f02be004f01be004f00be004e
:104038003600f900004006003600f800809fbe00f8
:10404800829fbe00849fbe00869fbe003200f8009b
:104058003400f80010002000a00188000020200093
:10406800900188000000fa0000aa2000c7fe07009f
:104078000080fa003400f9003200f9004f03be0056
:104088004f02be004f01be004f00be003600f900cf
:10409800004006003600f800809fbe00829fbe00e8
:1040a800849fbe00869fbe003200f8003400f800ee
:1040b80010002000a0018800002020009001880046
:1040c8000000fa0000aa200017ff07000080fa008d
:1040d8003400f9003200f9004f03be004f02be0061
:1040e8004f01be004f00be003600f9000040060038
:1040f8000800fa0010079800210798003207980076
:104108001e0090000000e00025003500e10f50007f
:1041180003003400e20f5000110032002100370084
:104128000000eb00000f7800080037002e00900018
:10413800904078002e0090000000e80020079800ca
:10414800804180004b0407001e0fe8009e007800a5
:104158003e009000808f5000f4ff390011003700b6
:104168000000eb00000f7800080037002e009000d8
:10417800904078002e0090000000e800200798008a
:10418800904180003b0407001e0fe8009e00780065
:104198003e009000808f5000f4ff39000100370086
:1041a800000000003e0090000080fa0000000600b9
:1041b8000000fa00ca070700406d2000801f780041
:1041c8005701200086c0b3008082eb0064c0b300b2
:1041d8008001eb00022f2000212f2000c0ad20001d
:1041e800d30807008f87e900a06d2000801f7800a2
:1041f800a70120000043eb008082eb0074c0b300ed
:104208008001eb00022f2000212f200020af20008a
:10421800c70807008f87e90040002000801f78004a
:1042280030002000801f780080c0b300801f780015
:104238000040eb00801f7800406a2000801f780053
:10424800406a2000801f7800b0c0b300801f78004b
:10425800c0c0b300801f780047092000460820002e
:1042680085222000642220004322200022222000f0
:1042780001222000c09e20006b000700f087570035
:1042880060002000801f780050002000801f780008
:1042980080c0b300801f78000040eb00801f7800ca
:1042a800606a2000801f7800606a2000801f780004
:1042b800e0c0b300801f7800f0c0b300801f780012
:1042c8006709200066082000852320006423200059
:1042d80043232000222320000123200080a2200065
:1042e80051000700f0875700d0012000801f780098
:1042f800c0012000801f780080c0b300801f7800b4
:1043080080c0b300801f7800a06a2000801f78005a
:10431800206a2000801f780020c0b300801f78002a
:1043280030c0b300801f7800e7092000e6082000ad
:104338008525200064252000432520002225200013
:104348000125200040a6200037000700f08757000d
:10435800f0012000801f7800e0012000801f780015
:1043680080c0b300801f78000040eb00801f7800f9
:10437800606b2000801f7800606b2000801f780031
:1043880080c0b300801f780090c0b300801f780001
:10439800e7092000e6082000852b2000642b200078
:1043a800432b2000222b2000012b200000aa2000f4
:1043b8001d000700f08757000000eb00801f780001
:1043c8000000eb00801f78000000eb00801f7800e1
:1043d8000000eb00801f78000000eb00801f7800d1
:1043e80010002000801f7800e5c4b30006002000fc
:1043f800676924000002eb008001eb0022af200077
:10440800c1ad2000c09e200072000700ec87570055
:10441800c09e200080418800c09e200090418800f6
:104428000080fa00000006001000fa00000f780073
:10443800110798002207980033079800440798004e
:104448005507980066079800770798001e007800bf
:104458009e009000010878001e007800ae009000d1
:10446800110098001e007800be00900021009800fe
:104478001e007800ce009000310098001e007800e1
:10448800de009000410098001e007800ee009000c9
:10449800510098001e007800fe009000610098000e
:1044a8001e0078008ef89700614898001e0078007a
:1044b800eef09700714898001e007800aeb897009b
:1044c800010898001e0078009eb89700110898000f
:1044d8001e0078008ef09700415098001e0078006a
:1044e800eee89700515098001e007800eeb0970053
:1044f800310898001e007800deb097004108980047
:104508001e0078008000eb00510898001e0078001b
:104518008000eb00610898001e0078008000eb0026
:10452800710898001e0078008000eb0001109800c8
:104538001e0078008000eb00111098001e00780023
:104548008000eb00211098001e0078008000eb002e
:10455800311098001e0078008000eb004110980090
:104568001e0078008000eb00511098001e007800b3
:104578008000eb00611098001e0078008000eb00be
:10458800711098001e0078008000eb000118980058
:104598001e0078008000eb00111898001e007800bb
:1045a8008000eb00211898001e0078001100200000
:1045b800311898001e0078008000eb004118980020
:1045c8001e0078008000eb00511898000080fa0067
:1045d800000006001000fa00881f7800000f78001d
:1045e800110798002207980033079800440798009d
:1045f8005607980067079800654f98001e007800d6
:10460800100078008000eb00010878001e00900080
:1046180060009000e10f40000e0232002e00900072
:1046280060009000e10f40000c0232001e00900074
:10463800000890000000e00069003a002e00900099
:10464800000890000000e00065003a001e0090009d
:104658000a0807001e009000650807002e00900059
:10466800df0707001e0078009e00900051089800a0
:104678001e0090009e007800010898001e0090001f
:104688008000eb00110898001e0090008000eb00ed
:10469800210898001e007800ae009000610898007c
:1046a8002e0090009e007800010898002e009000cf
:1046b8008000eb00110898002e0090008000eb00ad
:1046c80021089800113a8000f00b2000008160005a
:1046d80060042000710520002374200080497800c0
:1046e80081497800824978001e009000700090008f
:1046f8009e009000f1009000110178009e0090004b
:10470800a14890008180fb00f30320008118dd00a0
:104718008180ea0081006100010878001e00900095
:10472800700090009e009000f10090001101780048
:104738009e007800b10990009e009000a14890006a
:104748008180fb008118dd008280700001087800fc
:104758001e007800000890009e00780081089000f4
:10476800110178009e007800c15090008180fb0004
:10477800f30320008118dd008180ea0081006100d8
:10478800010878001e007800000890009e0078005c
:104798008108900011017800ae009000e1019000be
:1047a8009e007800c15090008180fb008118dd00d8
:1047b8008280700001087800113a8000000420000f
:1047c800010170006004200071052000237420009e
:1047d8008049780081497800824978000a003700ca
:1047e8001e007800d00890001e009000808f5000b6
:1047f8009c013a001e007800e00890002e0090000e
:10480800808f500099013a003e0090000000e000bf
:10481800870032004e0090000000e0008400320063
:104828003e00900060009000e10f400091013200ce
:104838004e00900060009000e10f40008f013200b0
:104848003e009000000890000000e00069003a0077
:104858004e009000000890000000e00065003a005b
:104868003e009000850707003e009000e007070023
:104878004e0090005a0707001e007800be00900006
:10488800710898003e0090009e007800010898008a
:104898003e0090008000eb00110898003e00900058
:1048a8008000eb00210898001e007800ce009000e0
:1048b800011098004e0090009e00780001089800b2
:1048c8004e0090008000eb00110898004e00900008
:1048d8008000eb0021089800113a8000f00b2000be
:1048e800008160006004200071052000237420000e
:1048f8008049780081497800824978003e0090001c
:1049080070009000be009000f10090001101780046
:10491800be009000a14890008180fb00f3032000b6
:104928008118dd008180ea008100610001087800bb
:104938003e00900070009000be009000f1009000d2
:10494800110178009e007800c1099000be00900017
:10495800a14890008180fb008118dd0082807000f2
:10496800010878001e007800100890009e0078006a
:1049780091089000110178009e007800d1509000b5
:104988008180fb00f30320008118dd008180ea00ac
:1049980081006100010878001e007800100890006e
:1049a8009e0078009108900011017800ce009000d8
:1049b800e10190009e007800d15090008180fb00ba
:1049c8008118dd008280700001087800113a8000ab
:1049d800000420000101700060042000710520001f
:1049e8002374200080497800814978008249780042
:1049f8000a0037001e007800f00890003e00900082
:104a0800808f50001f013a001e007800801090002f
:104a18004e009000808f50001c013a001e00780064
:104a280010007800012020000108780006003700f7
:104a38003e0090000000e00016013a004e00900091
:104a48000000e00015013a0018c0b300024022003f
:104a580043a724005e009000ee00900040f7070096
:104a68000000e00001003c000044eb000804e00006
:104a7800040032000040220041a72400500798009b
:104a88006107980018c0b3000240220043172400b1
:104a98005e009000ee0090002ff707000000e00095
:104aa800010035000044eb000804e0000400320077
:104ab8000040220041172400500798006107980021
:104ac80018c0b30002402200432724005e00900073
:104ad800ee00900020f707000000e000010034001d
:104ae8000044eb000804e0000f0032001e007800cc
:104af800400490005e019000ee019000004022000a
:104b080041972400d2f607000200200003f023009a
:104b180072f6070014f70700000078000000e900ab
:104b2800000c7800150037001e007800100078008f
:104b38009e00780091007800910078000130a00074
:104b4800010878001e007800400490005e01900083
:104b5800ee0190000040220041a72400bcf60700a7
:104b68000200200003f023005cf60700fef60700b1
:104b7800000078000000e900000c7800ee48900082
:104b880050c4b30080cf500004003200ee489000bb
:104b980050c6b30080cf500008003a001e007800cd
:104ba800100078009e00780091007800910078004d
:104bb8000110a0000108780018003700ee489000a6
:104bc800f0c4b30080cf500004003200ee489000db
:104bd800f0c6b30080cf500008003a001e007800ed
:104be800100078009e00780091007800910078000d
:104bf8000120a0000108780008003700ee48900066
:104c0800e0c4b30080cf500004003200ee489000aa
:104c1800e0c6b30080cf5000a2003a004eb897001b
:104c2800e20f500008003a001e00780010007800db
:104c38009e00780091007800910078000100a000a3
:104c480001087800030037004eb89700e10f5000c4
:104c580096003a002eb897000000e00004003a00e1
:104c68001e00780041d22100411898003600370014
:104c78001e007800100090009e00780091009000bf
:104c8800110178000100220082807000010878007c
:104c98001e007800aeb89700111098001e0078002a
:104ca8009eb89700211098001e0078008000eb0045
:104cb800311098001e0078008000eb004110980029
:104cc8001e0078008000eb00511098001e0078004c
:104cd800beb89700311898001e00780061d62100f0
:104ce800411898001e007800500090009e0078003f
:104cf800d1009000110178009e007800e1489000f2
:104d08008180fb00130020008118dd008180ea000b
:104d180081006100010878001e00780060009000a2
:104d28009e007800e1009000110178009e00780054
:104d3800e14890008180fb00130020008118dd000d
:104d480082807000010878000eb897000000e0002b
:104d580004003a001e00780081d421005118980000
:104d68002b0037001e0078008eb89700611098005d
:104d78001e007800feb09700711098001e007800a1
:104d88008000eb00011898001e0078008000eb00fe
:104d9800111898001e0078008000eb002118980078
:104da8001e00780061e52100511898001e00780067
:104db800500090009e007800d1009000110178000a
:104dc8009e007800f14890008180fb0013002000cd
:104dd8008118dd008180ea00810061000108780007
:104de8001e007800600090009e007800e1009000ae
:104df800110178009e007800f14890008180fb0046
:104e0800130020008118dd008280700001087800fe
:104e18001e007800100078009e007800910078004d
:104e280011017800010028008280700001087800d4
:104e38001e007800100090009e00780091009000fd
:104e4800110178000140200082807000010878007c
:104e580017003700000000001500370000000000b0
:104e680013003700000000001100370000000000a8
:104e78000f003700000000000d00370000000000a0
:104e88000b00370000000000090037000000000098
:104e98000700370000000000050037000000000090
:104ea8000300370000000000010037000000000088
:104eb8004f0478000080fa00000006000200fa00a3
:104ec800000f78001e007800100090009e00780007
:104ed8009100900011017800f1bf2f00810061005e
:104ee800010878001e007800100078008000eb00b0
:104ef800010878001e007800600090009e0078008d
:104f0800e1009000110178009e007800e1489000cf
:104f18008180fb00130020008118dd008180ea00f9
:104f280081006100010878001e0078006000900090
:104f38009e007800e1009000110178009e00780042
:104f4800f14890008180fb00130020008118dd00eb
:104f58008180ea0081006100010878001e00780065
:104f68008000eb00411898001e0078008000eb00dc
:104f7800511898001e007800500890000000e000ca
:104f88002f003200113a8000f00b200000816000f1
:104f980060042000710520002374200080497800f7
:104fa80081497800824978001e00780050089000f6
:104fb800700090009e007800d1089000f1009000e9
:104fc800110178009e007800d1089000a148900057
:104fd8008180fb00f30320008118dd008180ea0056
:104fe8008100610001087800113a80000004200067
:104ff8000101700060042000710520002374200066
:105008008049780081497800824978001e0078003c
:10501800500890008000eb00010898001e007800fe
:1050280050089000950507001e0078005008900071
:10503800ef0507001e0078008000eb00510898007b
:105048001e007800600890000000e0002800320090
:10505800113a8000f00b20000081600060042000fd
:105068007105200023742000804978008149780068
:10507800824978001e007800000890009e007800a1
:1050880081089000110178009e007800c1509000be
:105098008180fb00f30320008118dd00828070000e
:1050a80001087800113a8000000420000101700016
:1050b80060042000710520002374200080497800d6
:1050c80081497800824978001e00780060089000c5
:1050d8008000eb00010898001e007800600890002e
:1050e8003f0507001e0078008000eb00610898006b
:1050f8001e007800700890000000e0002f003200c9
:10510800113a8000f00b200000816000600420004c
:1051180071052000237420008049780081497800b7
:10512800824978001e007800700890007000900096
:105138009e007800f1089000f100900011017800bd
:105148009e007800f1089000a14890008180fb0043
:10515800f30320008118dd008180ea0081006100ee
:1051680001087800113a8000000420000101700055
:105178006004200071052000237420008049780015
:1051880081497800824978001e00780070089000f4
:105198008000eb00010898001e007800700890005d
:1051a800360507001e00780070089000900507007b
:1051b8001e0078008000eb00710898001e0078003f
:1051c800001090000000e00028003200113a800032
:1051d800f00b2000008160006004200071052000b1
:1051e800237420008049780081497800824978003a
:1051f8001e007800100890009e007800910890002a
:10520800110178009e007800d15090008180fb0049
:10521800f30320008118dd00828070000108780007
:10522800113a800000042000010170006004200091
:105238007105200023742000804978008149780096
:10524800824978001e007800001090008000eb0072
:10525800010898001e00780000109000e004070084
:105268001e0078008000eb00011098000080fa0012
:10527800000006000400fa00000f7800214798009b
:105288001e007800401890000000e0000500320081
:105298001e00780040199000ae4090001e00780073
:1052a800020001000080fa00000006000200fa0077
:1052b800000f78001e007800501890000000e000f1
:1052c800050032001e007800d01890001e007800fb
:1052d800010001000100370000c0eb000080fa0067
:1052e800000006000200fa00000f78001e00780097
:1052f80010009000900078000040200000806000be
:105308000000e00008003a001e007800100090003d
:105318009e00780091009000110178000140200063
:1053280082807000010878000080fa000000060002
:105338000400fa00000f78001107980008003700f1
:105348001e009000104078009e0090008100e80048
:1053580011079800804078001e007800c5ff0700fc
:105368001e009000104078000004e000f4ff3a00ae
:105378001e007800dbff07000080fa00000006002e
:105388000a00fa00200798003107980042079800a1
:105398004e0090000000e000870032004e009000b0
:1053a800e10f500004003a003e0090008040eb00fe
:1053b8000148780081003700b1c1b3002e00900089
:1053c800acff070071c3b3002e009000a9ff0700cf
:1053d8002e009000c3ff0700be0090001107980040
:1053e800ce009000010f7800030037000000000095
:1053f80001003700000000002e009000abff0700fe
:10540800be009000804878003e0090001040780070
:10541800ed4f50000c003a003e0090008040eb0039
:1054280001487800a1c0b3002e00900091ff07004a
:10543800d1c0b3002e0090008eff07002e00900010
:10544800a8ff07005d0037003e009000104078007c
:10545800fb4f500016003a00b1c1b3002e00900077
:1054680084ff070081c3b3002e00900081ff07006e
:10547800b1c1b3002e0090007eff0700b1c5b30094
:105488002e0090007bff0700b1c4b3002e009000ef
:1054980078ff07002e00900092ff07009e00900002
:1054a80031079800ce009000010f780041003700c6
:1054b8003e00900010407800e84f50000500320090
:1054c8003e00900090407800f0c7b30080cf5000b5
:1054d8001a003a00be0090001e009000808f500015
:1054e8001000360081c0b3002e00900061ff070055
:1054f80001c2b3002e0090005eff070081c0b30018
:105508002e0090005bff07002e00900075ff07003b
:105518003e0090000000e900300798001e0fe800e8
:105528000500370071c0b3002e00900051ff07003e
:105538002e0090006bff07001e0037001e00780049
:10554800e10f500006003a0071c0b3002e00900031
:1055580048ff07002e00900062ff07001500370083
:105568003e00900010407800ff4f50009fff36002b
:105578003e00900090407800e0c7b30080cf500014
:105588009cff3e003e00900010407800804078006c
:105598002e00900037ff07002e00900051ff0700f3
:1055a8003e0090000000e800300798001e0fe90058
:1055b80091ff370090ff3700000000000080fa00dc
:1055c800000006000200fa00000f78001e007800b4
:1055d800010207001e007800100890000000e0009b
:1055e800050032001e007800900890001e00780028
:1055f800010001001a0037001e0078002008900002
:105608000000e000140032001e007800000890003e
:105618000000e0000a0032001e007800a008900098
:105628001e007800010001001e00780000089000ac
:105638008000e9001e007800010898000800370083
:105648001e0078000c0207001e0078008000eb00a6
:1056580021089800020037001e00780006020700a3
:105668000080fa00000006003600f800809fbe00a7
:10567800829fbe00849fbe00869fbe003200f80055
:105688003400f80010002000a0018800002020004d
:10569800900188000000fa0000b92000c9ff070047
:1056a8000080fa003400f9003200f9004f03be0010
:1056b8004f02be004f01be004f00be003600f90089
:1056c800004006003600f800809fbe00829fbe00a2
:1056d800849fbe00869fbe003200f8003400f800a8
:1056e80010002000a0018800002020009001880000
:1056f8000000fa0060ba2000b2ff07000080fa003c
:105708003400f9003200f9004f03be004f02be001a
:105718004f01be004f00be003600f90000400600f1
:105728003600f800809fbe00829fbe00849fbe00a6
:10573800869fbe003200f8003400f80010002000f8
:10574800a001880000202000900188000000fa00d5
:10575800c0bb20009bff07000080fa003400f9005e
:105768003200f9004f03be004f02be004f01be00d9
:105778004f00be003600f900004006003600f80071
:10578800809fbe00829fbe00849fbe00869fbe0091
:105798003200f8003400f80010002000a001880052
:1057a80000202000900188000000fa0020bd2000a1
:1057b80084ff07000080fa003400f9003200f90085
:1057c8004f03be004f02be004f01be004f00be0097
:1057d8003600f900004006003600f800809fbe0041
:1057e800829fbe00849fbe00869fbe003200f800e4
:1057f8003400f80010002000a001880000202000dc
:10580800900188000000fa0080be20006dff0700ac
:105818000080fa003400f9003200f9004f03be009e
:105828004f02be004f01be004f00be003600f90017
:10583800004006000000fa00b0002000801f780039
:105848004700200036c0b300450920004408200066
:1058580003102000221020004110200000b9200071
:10586800330007008f87e900c0002000801f780000
:105878008003eb0076c0b3004509200044082000ef
:1058880063102000c21020000111200060ba20001f
:10589800270007008f87e900d0002000801f7800cc
:1058a8001700200086c0b3004509200044082000e6
:1058b800a3102000e210200021112000c0bb20000e
:1058c8001b0007008f87e900e0002000801f780098
:1058d80027002000b6c0b300650920006408200036
:1058e80043112000a2112000e111200020bd20005a
:1058f8000f0007008f87e900f0002000801f780064
:1059080037002000c6c0b3006509200064082000e5
:1059180083112000c21120000112200080be200047
:10592800030007008f87e9000080fa0000000600e6
:105938001000fa00000f780011079800220798005d
:10594800330798004407980055079800464f980079
:10595800770798001e0078009e00900001087800e4
:105968001e007800ae009000110098001e0078001c
:10597800be009000210098001e007800ce00900024
:10598800310098001e007800de0090004100980069
:105998001e007800ce489000214898001e0078002c
:1059a800fe009000610098001e007800ceb89700b5
:1059b800710098001e0078008000eb000108980034
:1059c8001e0078008000eb00110898001e00780087
:1059d8008000eb00210898000080fa000000060013
:1059e8000600fa00881f7800000f78001207980058
:1059f8002307980018c0b300d27b230063f8230064
:105a08001e009000ae00900055f307000000e00073
:105a180001003c000044eb000804e00069003a0083
:105a280018c0b300d27b230063e823001e00900057
:105a3800ae0090004af307000000e00001003c00bf
:105a48000044eb000804e000120032001e00780059
:105a5800c40007001e007800100078000103200031
:105a6800010878001e00780010049000024022000f
:105a7800437724001e009000ae009000aaf30700b0
:105a880039f30700000078000000e900000c7800f6
:105a98004d00370018c0b300d27b230063d0230029
:105aa8001e009000ae0090002df307000000e000fb
:105ab80001003c000044eb000804e0001200320042
:105ac8001e007800a70007001e007800100078006c
:105ad80001022000010878001e00780010049000e0
:105ae80002402200438724001e009000ae00900070
:105af8008df307001cf30700000078000000e900a0
:105b0800000c78003000370018c0b300d27b2300a7
:105b180063b823001e009000ae00900010f3070049
:105b28000000e00001003c000044eb000804e00035
:105b3800120032001e0078008a0007001e0078005c
:105b48001000780001012000010878001e0078008c
:105b58001004900002402200439f24001e00900081
:105b6800ae00900070f30700fff207000000780015
:105b78000000e900000c7800130037001e007800d0
:105b8800780007001e007800100078008000eb0005
:105b9800010878001e0078001004900002402200de
:105ba80043b724001e009000ae0090005ef307008b
:105bb800edf20700000078000000e900000c780012
:105bc80001003700000000004f0478000080fa0050
:105bd800000006000400fa00889fbe001007980025
:105be8001e0090001000780090007800000320004c
:105bf800008060004400de00000f78001e0078007e
:105c0800c200dd0080c12000008040001004be00fa
:105c18001e00900010009000100078008000eb003b
:105c2800ecf207000200200003f823002bf2070023
:105c38000001be000800be003bf307004f04be0091
:105c48000080fa00000006000600fa00000f780045
:105c580012079800230798001e019000ae019000db
:105c68000000200001f8230079f207000001be00bf
:105c78001e0078005aff07000080fa0000000600a6
:105c88000200fa00000f78001e007800d1ff07001c
:105c98000001be000000200001f823006cf207009c
:105ca8000080fa00000006000400fa00889fbe0089
:105cb800100798001e0090001000780090007800ef
:105cc80000032000008060004400de00000f780020
:105cd8001e007800c200dd0080c120000080400066
:105ce8001004be001e009000100090001000780004
:105cf8008000eb00b7f207000200200003f8230041
:105d0800f6f107000001be000800be0006f3070018
:105d18004f04be000080fa00000006000200fa00ee
:105d2800000f78001e0078002b0007001e00780086
:105d3800200090008000eb00010878001e00780029
:105d4800100078009e00780091007800110178001a
:105d58000100280082807000010878000080fa00a5
:105d6800000006000200fa00000f78001e0078000c
:105d7800100078009e0078009100780011017800ea
:105d8800f1ff270081006100010878000080fa0017
:105d9800000006000200fa00000f78001e007800dc
:105da80030009000900078001e0078002048900095
:105db8000080fb00120020000010dd000080600061
:105dc80000f0a7000000ea000000ea004f00de0033
:105dd8000080fa00000006000200fa00000f7800b8
:105de8001e007800300090009e007800b1009000fe
:105df800110178009e007800a14890008180fb0086
:105e0800130020008118dd008180ea008100610014
:105e1800010878000080fa00000006000200fa007d
:105e2800000f78001e007800200090001000780015
:105e38000080fa00000006000200fa00000f780057
:105e48001e007800400090009e007800c10090007d
:105e5800110178009e007800a14890008180fb0025
:105e6800130020008118dd0082807000010878008e
:105e78000080fa00000006000200fa00000f780017
:105e88001e007800400090009e007800c10090003d
:105e9800110178009e007800a14890008180fb00e5
:105ea800130020008118dd008180ea008100610074
:105eb800010878000080fa00000006000800fa00d7
:105ec800000f780012079800230798003107980000
:105ed8001e007800e8ff07001e019000ae01900048
:105ee8001e007800befe07001e0078008000eb0050
:105ef800010898001e007800be0090001108980064
:105f08001e0078008000eb00210898001e00780031
:105f1800c9ff07001e00780080ff07000080fa0014
:105f2800000006000a00fa00000f78001207980027
:105f38002307980031079800440798001e0078004e
:105f4800cdff07001e019000ae0190001e007800f2
:105f5800a3fe07001e007800be009000010898000c
:105f68001e0078008000eb00110898001e007800e1
:105f7800ce009000210898001e007800aeff0700b0
:105f88001e00780065ff07000080fa000000060088
:105f98000200fa00000f78001e007800b6ff070024
:105fa8001e0078008cff07001e0078006dff0700b8
:105fb8001e0078008000eb00010898001e007800a1
:105fc8008000eb00110898001e0078008000eb00ac
:105fd800210898000080fa00000006000400fa007a
:105fe800000f7800110798001e0090000000e000e4
:105ff8000d0032001e007800100078009e00780026
:1060080091007800110178009e007800e14090002e
:106018008180fb00130020008118dd008280700061
:10602800010878000d0037001e0078001000780085
:106038009e00780091007800110178009e00780099
:10604800e14090008180fb00130020008118dd00f2
:106058008180ea0081006100010878000080fa0070
:10606800000006000200fa00000f78001e00780009
:1060780010007800900078001e00780060409000c2
:106088000080fb00120020000010dd00008060008e
:1060980000f0a7000000ea000000ea004f00de0060
:1060a8000080fa00000006000200fa00000f7800e5
:1060b8001e00780040009000401988002023a800a6
:1060c8000000000000198000610060000000e0008e
:1060d800fcff3200001880000080fa000000060073
:1060e8000200fa00406d2000801f78004701200060
:1060f8000043eb008082eb0054c0b3008001eb004a
:10610800822d2000a12d20004083200008010700d7
:106118008f87e900806d2000801f7800970120009c
:1061280086c0b3008082eb0044c0b3008001eb005e
:10613800822d2000a12d2000a0842000fc00070053
:106148008f87e900a06c2000801f7800a70020003e
:106158000043eb008082eb0044c0b3008001eb00f9
:10616800822e2000a12e200000862000f0000700cb
:106178008f87e900006d2000801f7800170120003c
:1061880086c0b3008082eb0054c0b3008001eb00ee
:10619800822e2000a12e200060872000e400070046
:1061a8008f87e900c06d2000801f7800d70120008c
:1061b80086c0b300f5002000f4c0b300234e2000d1
:1061c800822c2000a12c2000c0882000d8000700c5
:1061d8008f87e900006d2000801f780007012000ec
:1061e8000043eb008082eb0034c0b3008001eb0079
:1061f800822e2000a12e2000208a2000cc0007003b
:106208008f87e900206c2000801f7800270020007d
:106218000043eb008082eb0084c0b3008001eb00f8
:10622800822d2000a12d2000808b2000c0000700b7
:106238008f87e900c06c2000801f7800c70020000d
:106248000043eb008082eb00b4c0b3008001eb0098
:10625800822d2000a12d2000e08c2000b400070032
:106268008f87e900406c2000801f780047002000dd
:106278000043eb008082eb0094c0b3008001eb0088
:10628800822d2000a12d2000408e2000a8000700ac
:106298008f87e900206c2000801f780037002000dd
:1062a80086c0b3008082eb00a4c0b3008001eb007d
:1062b800822d2000a12d2000a08f20009c00070027
:1062c8008f87e900a06c2000801f7800b7002000ad
:1062d80086c0b3008082eb000042eb008001eb0037
:1062e800822d2000a12d20000091200090000700a1
:1062f8008f87e900806d2000801f780087012000cb
:106308000043eb008082eb0014c0b3008001eb0077
:10631800822d2000a12d200060922000840007001b
:106328008f87e900606d2000801f780077012000ca
:1063380086c0b3008082eb0024c0b3008001eb006c
:10634800822d2000a12d2000c09320007800070096
:106358008f87e900606d2000801f780067012000aa
:106368000043eb008082eb0034c0b3008001eb00f7
:10637800822d2000a12d2000209520006c00070010
:106388008f87e900006c2000801f78008003eb00f5
:106398000043eb008002eb000042eb00234e20009c
:1063a800822c2000a12c2000609d200060000700a6
:1063b8008f87e900006c2000801f780017002000fc
:1063c80086c0b3001500200014c0b300234e20007f
:1063d800822c2000a12c2000009c200054000700e3
:1063e8008f87e900c06c2000801f7800d70020004c
:1063f80086c0b3002500200024c0b300234e20002f
:10640800822c2000a12c2000a09a20004800070020
:106418008f87e9000000eb00801f78008083eb0085
:106428000043eb003500200034c0b300234e2000a9
:10643800822c2000a12c2000409920003c0007005d
:106448008f87e900c06d2000801f7800c7012000f9
:106458000043eb004500200044c0b300234e200059
:10646800822c2000a12c2000e0972000300007009b
:106478008f87e900206d2000801f78002701200009
:106488000043eb005500200054c0b300234e200009
:10649800822c2000a12c20008096200024000700d8
:1064a8008f87e9000000eb00000f78000700370035
:1064b8001e0078007600b900800078004083200034
:1064c80000804000460007001e0fe8001e0078000c
:1064d800ed0f5000f6ff36000000eb00000f7800cb
:1064e800070037001e0078007600b90080007800a9
:1064f8008096200000804000950007001e0fe800ed
:106508001e007800e50f5000f6ff3600002e200030
:10651800001988002223ef0000c4200020198800f9
:106528002823ef0021e3a8000080fa0000000600fd
:106538001000fa00000f7800110798002207980051
:1065480033079800044f980055079800464f980065
:10655800770798001e0078009e00900001087800d8
:106568001e007800ae009000110098001e00780010
:10657800be009000210098001e0078008e48900010
:10658800614098001e007800de00900041009800ed
:106598001e007800ce48900021489800fe00900028
:1065a8001e007800610098001e007800ceb89700a1
:1065b800710098001e0078008000eb000108980028
:1065c8001e0078008000eb00110898001e0078007b
:1065d8008000eb00210898000080fa000000060007
:1065e8000200fa00000f78001e00780020009000da
:1065f8000000e0000d0032001e007800200090002e
:106608009e007800a1009000110178009e0078009b
:10661800e14090008180fb00130020008118dd001c
:106628008180ea0081006100010878001e0078007e
:10663800100090009e0078009100900011017800f1
:106648009e007800e14090008180fb00130020004c
:106658008118dd0082807000010878001e00780033
:106668008000eb00110898001e00780061032300e9
:10667800210898000080fa00000006000200fa00d5
:10668800000f78001e007800200090000000e00055
:106698000d0032001e007800200090009e00780057
:1066a800a1009000110178009e007800e140900060
:1066b8008180fb00130020008118dd008180ea0042
:1066c80081006100010878001e0078001000780041
:1066d8009e00780091007800110178009e007800f3
:1066e800e14090008180fb00130020008118dd004c
:1066f8008180ea0081006100010878001e007800ae
:10670800100090009e007800910090001101780020
:106718009e007800e14090008180fb00130020007b
:106728008118dd008180ea0081006100010878009d
:106738001e00780021ff2200110898001e00780032
:1067480061032300210898000080fa000000060079
:106758000200fa00000f78001e0078002000900068
:106768000000e0001f0032001e00780010009000ba
:106778009e00780091009000110178009e0078003a
:10678800e14090008180fb00130020008118dd00ab
:1067980082807000010878001e00780020009000b8
:1067a8009e007800a1009000110178009e007800fa
:1067b800e14090008180fb00130020008118dd007b
:1067c80082807000010878001e0078008000eb00cd
:1067d800110898001e007800810523002108980000
:1067e80001003700000000000080fa0000000600e9
:1067f8000200fa00000f78001e0078009008900050
:1068080020ff2200808f50000c003a001e00780004
:10681800100078009e00780091007800110178003f
:106828009e007800e14090008180fb00130020006a
:106838008118dd0082807000010878000080fa006d
:10684800000006000200fa00000f78001e00780021
:106858009008900020ff2200808f50000d003a0021
:106868001e007800100078009e00780091007800e3
:10687800110178009e007800e14090008180fb00c3
:10688800130020008118dd008180ea00810061008a
:10689800010878000080fa00000006000200fa00f3
:1068a800000f78001e0078009008900020ff22005a
:1068b800808f50000c003a001e007800100078000d
:1068c8009e00780091007800110178009e00780001
:1068d800e14090008180fb00130020008118dd005a
:1068e80081006900010878000080fa0000000600b5
:1068f8000400fa00000f7800110798001e007800c5
:10690800100890000000e000050032001e0078002a
:10691800100990009e0090001e00780002000100ff
:106928000080fa00000006000200fa00000f78005c
:106938001e007800200890000000e00005003200ea
:106948001e007800a00890001e00780001000100d9
:10695800010037000080eb000080fa00000006000c
:106968000000fa0074c0b300634e2000822d20009e
:10697800a12d200000802000200007000042eb002d
:10698800a34e2000822e2000a12e2000808020000f
:106998001a00070014c0b300a34e2000822e200066
:1069a800a12e20000081200014000700f4c0b300cd
:1069b800434e2000022d2000212d20008081200040
:1069c800ad000700c4c0b300434e2000022d2000d4
:1069d800212d200000822000a7000700c4c0b300ba
:1069e800234e2000822c2000a12c20008082200031
:1069f800a10007000080fa00000006000a00fa0063
:106a0800000f7800110798002207980033079800b4
:106a1800044f98001e0078009e009000010878003e
:106a28001e007800ae009000110098001e0078004b
:106a3800be009000210098001e0078008e4890004b
:106a4800614098001e007800200090009e007800a9
:106a5800a1009000110178009e007800e1409000ac
:106a68008180fb00130020008118dd008180ea008e
:106a780081006100010878001e007800100078008d
:106a88009e00780091007800110178009e0078003f
:106a9800e14090008180fb00130020008118dd0098
:106aa8008180ea0081006100010878001e007800fa
:106ab800100090009e00780091009000110178006d
:106ac8009e007800e14090008180fb0013002000c8
:106ad8008118dd008180ea008100610001087800ea
:106ae8000080fa00000006000200fa00000f78009b
:106af8001e007800100078009e0078009100780051
:106b0800110178009e007800e14090008180fb0030
:106b1800130020008118dd008280700001087800d1
:106b28000080fa00000006000200fa00000f78005a
:106b38001e007800100078009e0078009100780010
:106b4800110178009e007800e14090008180fb00f0
:106b5800130020008118dd008180ea0081006100b7
:106b6800010878000080fa00000006000200fa0020
:106b7800000f78001e007800100078009e00780052
:106b880091007800110178009e007800e1409000a3
:106b98008180fb00130020008118dd00810069005e
:106ba800010878000080fa00000006000400fa00de
:106bb800000f7800110798001e0090000000e00008
:106bc8000d0032001e007800100078009e0078004a
:106bd80091007800110178009e007800e140900053
:106be8008180fb00130020008118dd008280700086
:106bf800010878000d0037001e00780010007800aa
:106c08009e00780091007800110178009e007800bd
:106c1800e14090008180fb00130020008118dd0016
:106c28008180ea0081006100010878000080fa0094
:106c3800000006000200fa00000f78001e0078002d
:106c480010007800900078001e00780060409000e6
:106c58000080fb00120020000010dd0000806000b2
:106c680000f0a7000000ea000000ea004f00de0084
:106c78000080fa00000006000a00fa00000f780001
:106c8800110798002207980033079800044f9800ce
:106c98001e0078009e009000010878001e00780011
:106ca800ae009000110098001e007800be00900011
:106cb800210098001e0078008e48900061409800de
:106cc8001e007800200090009e007800a10090002f
:106cd800110178009e007800e14090008180fb005f
:106ce800130020008118dd008180ea008100610026
:106cf800010878001e007800100090009e007800bf
:106d080091009000110178009e007800e140900009
:106d18008180fb00130020008118dd008280700054
:106d2800010878000080fa00000006000200fa005e
:106d3800000f78001e00780010007800900078009e
:106d48001e007800604090000080fb0012002000c8
:106d58000010dd000080600000f0a7000000ea00dd
:106d68000000ea004f00de000080fa000000060084
:020000040000fa
:106d7800180c00001000000082000000bd378600db
:106d880033bd37000635bd0037863600bd3786006f
:106d980037000000900b00006e000000800000002b
:106da80000080000300000008000000034080000e7
:106db800b801000080000000ec0900001c01000080
:106dc800800000003008000004000000800000007f
:106dd800fe0b00001a00000082000000686a6c00c8
:106de800747a4c0000000100000200000400080052
:106df80000100000000020002b2d230030000000b0
:106e0800080b00008800000082000000010000005c
:106e1800002e0b002f0b2e000b2e0b002e0b2e001e
:106e28000b1e0b0000000000000000000000000026
:106e3800000000000000000000000000000000004a
:106e480000020800010156000b570b00560b5600b4
:106e58000b560b00560b46000b000000000000000c
:106e6800000000000000000000000000000000001a
:106e78000000000000000200080202007e0b7f00f4
:106e88000b7e0b007e0b7e000b7e0b006e0b000052
:106e980000000000000000000000000000000000ea
:106ea800000000000000000000000000080b300097
:106eb8000b580b000000000000000000000000005c
:106ec800000000002c0c0000020000008000000000
:106ed8002e0c0000020000008200000004000000e8
:106ee800280c00000400000080000000300c0000a6
:0c6ef8000200000080000000000000000c
:020000040000fa
:106f04000400fa0000102000203a880095fe0700d3
:106f140049fa070073fc0700a6f407004083200029
:106f2400000f78001e007800aefd07000100370056
:106f3400000000001e0078007cfe07001007980087
:106f44001e0090000000e00008003a0000802000cd
:106f5400e6fe070080802000f4fe070020d129000f
:106f6400801f7800fdee07008f87e9001e00900067
:106f7400e10f5000eeff3a0080802000dbfe0700a6
:106f840000802000e9fe0700a0d12900801f7800be
:0c6f9400f2ee07008f87e900e6ff3700ef
:020000040000fa
:086fa0000040da000000fe00d1
:00000001FF
