:020000040000fa
:080000001011040000000000d3
:020000040000fa
:10222000ef8a20000eff27000e018800000000004a
:10223000000020000000e000020032000001200049
:10224000200288000c00070060c621000100200069
:102250000f000700000020000000e0000200320034
:102260000000020000000000161c02000000000038
:102270000040da000000fe00200020000000e00026
:1022800002003200100020009001880000000600cb
:10229000a1028800800078000000eb001a003700df
:1022a000e280400054a0b4009101ba00e2804000f6
:1022b00054a0b4009102ba00e280400054a0b400df
:1022c0000002eb00472bde00f507b200a6018800f4
:1022d000602ce10008003a000049eb000201e80030
:1022e000020039003420ec0002f0a0008301e90074
:1022f000f9ff3e00040037006128e10001003200d0
:102300000082eb00040007001101ba000200e000a7
:10231000e3ff3a000000060004d0a300e20f4900ea
:102320001c003900810278003549ba000201e8003a
:10233000020039003420ec0002f0a0008301e90023
:102340000f0032002549ba000201e80002003900fe
:102350003420ec0002f0a0008301e9000800320004
:102360000400e0000600320015c9ba000201e800ce
:10237000020039003420ec0002f0a0008301e900e3
:102380008180e80054a0b4000300e000e2ff3a00be
:10239000000006009102ba00055978008301e900a7
:1023a000f7ff3200c82ade00055978008301e900f2
:1023b000f3ff32000400e000f1ff320011d9ba004f
:1023c000eeff370003f0a200889fbe008a9fbe0088
:1023d0008c1f7800f5000700fc0033006450e1001a
:1023e0004f0032006420e1005200320003826c0092
:1023f00007003b000905d0000306d000820f5400ff
:102400000c065d00020039000200320089017800ec
:10241000030678008582550004003d000003fd009e
:102420008103fd008502ea008b854200840f720063
:1024300002003b0060001000e08018006011b8004e
:102440000005eb007a28e1000a0039000600780058
:10245000c75ddd00f707b200878075002d003700eb
:10246000828171000a017800610560008180d100dd
:102470000080d3008502e900f9ff3b00060440001c
:102480008784480002003b0060041400e0841c00c4
:102490000988a300070032008a81710082817100df
:1024a000610164008904d1000884d3008b05e80031
:1024b000170037000978a30013003a000b00e00072
:1024c000130034008b05e9000804440089844c00a3
:1024d0000a4474000978a3000d003a000b00e000e4
:1024e000070034008b05e9000804440089844c008f
:1024f00001003a000b0020000978a300f7ff32002a
:102500000001eb0002003700828171000a017800af
:102510006b0007000cf0a70001f0a000b40037002a
:102520006420e10002003a00838f6c00b4003300a5
:102530000801be000200be00ad003700889fbe004b
:102540008a9fbe008c1f7800980007009f00330010
:1025500003866c006450e1002e0032006420e1002c
:10256000330032006150e1002f0032006120e100b1
:102570003100320085855500eb07b00009002000ce
:1025800008042000050037000804440089844c003a
:102590000a0031000603430087834b00000153000b
:1025a00081815b00f8ff33000203be000800a00039
:1025b0000804440089844c00f6ff3900c639dd0068
:1025c0008301730001003200130020008904d10050
:1025d0000884d3000998a300050032000800a70072
:1025e0000300a0008904d1000884d3008b05e80013
:1025f0008904d1000884d3000001eb000281d200dd
:102600002f00070001f0a1000cf0a70001f0a000ce
:10261000770037006420e100790032000801be0035
:102620000200be00f7ff37006120e10074003200b5
:102630006000b800f3ff37000000200001f8270019
:10264000f0ff3700f4ff2f00a40037000001be00a8
:10265000410007000470a70003f0a10003f8a300e5
:1026600013003a006509b10010003200090035007e
:102670006928e10002003500010028000000050083
:1026800000004000818048008502e900fcff3a001c
:1026900000000600f88f4200050035008100d100df
:1026a0000080d3008502e800fcff3a00000006002d
:1026b0008000eb00000005006011b800a2003700a8
:1026c00081002000618055000b003d000b002000c0
:1026d00061fe2f000100e1001d00340082817100c5
:1026e000610164008904d1000884d3000000e8007f
:1026f000faff3a00710020006100640003007000de
:10270000020060000900320061044400e0844c00d3
:102710000988a500050032008b05e8006808e10083
:1027200002003a008904d1000884d300f20f20008f
:102730000258e10005003d00c75ddd00f907b20069
:102740008980750008007800000006000bf827005b
:102750008b00780000000500c70ade00f107b20018
:10276000f50fb20008003200e1cf42000200320053
:102770000170a00024000500810f700001003200ec
:102780000408050044000500810f700002003a00b3
:10279000140005008502e9000000400081c04800e7
:1027a000fcff3b000170a000240005000004be00f7
:1027b000e9ff07000003be000405be000200be00e2
:1027c000e5ff0700844f7500000006000200be0010
:1027d0006450e100050036006420e100020036008c
:1027e0000968a30001003a000800be000160a000d3
:1027f0004f0678004f05be004f04be0000000600e3
:10280000f0ff2f00f1ff2700f9ff3700889fbe007f
:102810008a9fbe008c1f7800e4ff0700ebff3300a7
:1028200003866c006450e100240032006420e10063
:10283000270032006150e100220032006120e100f7
:10284000210032008b854200eb07b1000134b80053
:10285000003ab8000804420089844a00013ab800ee
:102860000030b8008880400009014a0004003300ad
:102870000000400081804800020149008b05e9000a
:10288000c909dd008301700001003200130020003f
:10289000c814de004814dd004709de001200b20053
:1028a000c808de000884700085ff070001f0a10061
:1028b0000cf0a70001f0a000cdff37006120e1007f
:1028c000cfff32000801be000200be00f7ff370054
:1028d0006150e100fcff3a00c9ff3700889fbe004d
:1028e0008a9fbe00841f7800b0ff07004f00780069
:1028f00011003300f0ff2f00838f6c0006003b00b7
:10290000040565000a00a7000800370009f0a600ca
:102910001000200008003700820f5400838f5c00f5
:10292000030039001000200001003e0000002000dc
:1029300009f0a7000000ea004f05be004f04be00ea
:102940000000e00000000600889fbe008a9fbe00d5
:1029500000827000040271000482710026003200bf
:102960000004be000200be006011b8006b09200028
:10297000950220000182cf000a0039000541b10014
:102980000082cf00070039000541b1000982cf0065
:10299000040039000541b1000882cf000100390070
:1029a0000541b10005425200120032000a003b000e
:1029b00082817100610164008100d1000080d30038
:1029c0008984d3000884d3008b05e8000442e80022
:1029d000f7ff3a00070037000804440089844c00e0
:1029e00000004800818048008b05e9000442e900ae
:1029f000f9ff3a0032ff07004f05be004f04be004a
:042a000000000600cc
:020000040000fa
:020000040002f8
:04aff400031c00003a
:020000040000fa
:020000040002f8
:04aff8000f890000bd
:020000040000fa
:020000040002f8
:04affc007f3e000094
:020000040000fa
:102000001011040000000000861c04000000000005
:10201000861c040000000000861c04000000000074
:10202000861c040000000000861c04000000000064
:10203000861c040000000000861c04000000000054
:10204000861c04000000000054150400000000007d
:10205000861c040000000000861c04000000000034
:102060008215040000000000b0150400000000000c
:10207000861c040000000000861c04000000000014
:10208000861c040000000000861c04000000000004
:10209000861c040000000000861c040000000000f4
:1020a000861c040000000000861c040000000000e4
:1020b000861c040000000000861c040000000000d4
:1020c000861c040000000000861c040000000000c4
:1020d000861c040000000000861c040000000000b4
:1020e000de150400000000000c16040000000000d3
:1020f000861c040000000000861c04000000000094
:10210000861c040000000000861c04000000000083
:10211000861c040000000000861c04000000000073
:10212000861c040000000000861c04000000000063
:10213000861c040000000000861c04000000000053
:10214000861c040000000000861c04000000000043
:10215000861c040000000000861c04000000000033
:10216000861c040000000000861c04000000000023
:10217000861c040000000000861c04000000000013
:10218000861c040000000000861c04000000000003
:10219000861c040000000000861c040000000000f3
:1021a000861c040000000000861c040000000000e3
:1021b000861c040000000000861c040000000000d3
:1021c000861c040000000000861c040000000000c3
:1021d000861c040000000000861c040000000000b3
:1021e000861c040000000000861c040000000000a3
:1021f000861c040000000000861c04000000000093
:10220000861c040000000000861c04000000000082
:10221000861c040000000000861c04000000000072
:020000040000fa
:1000080004100000081000000c1000001010000080
:10001800141000000c1100000c1100000c1100005d
:10002800181000001c100000201000002410000010
:100038000c110000281000002c10000030100000e7
:1000480034100000381000003c1000004010000080
:1000580044100000481000000c1100000c110000b2
:100068004c10000050100000541000005810000000
:100078005c1000000c11000060100000641000000b
:100088000c110000681000006c10000070100000d7
:1000980074100000781000007c1000008010000030
:1000a80084100000881000000c1100000c110000e2
:1000b8000c1100008c10000090100000941000003b
:1000c800981000009c100000a0100000a410000070
:1000d800a8100000ac1000000c1100000c1100006a
:1000e8000c110000b0100000b41000000c1100004a
:1000f8000c110000b8100000bc1000000c1100002a
:100108000c1100000c1100000c1100000c11000073
:100118000c1100000c110000c01000000c110000b0
:100128000c110000c4100000c8100000cc10000022
:100138000c1100000c1100000c1100000c11000043
:10014800d01000000c1100000c1100000c11000070
:100158000c110000d41000000c1100000c1100005c
:100168000c110000d8100000dc100000e0100000a6
:10017800e4100000e8100000ec100000f01000008f
:10018800f4100000f8100000fc100000001100003e
:1001980004110000081100000c1100000c110000ef
:1001a8000c1100000c1100000c1100000c110000d3
:1001b8000c1100000c1100000c1100000c110000c3
:1001c8000c1100000c1100000c1100000c110000b3
:1001d8000c1100000c1100000c1100000c110000a3
:1001e8000c1100000c1100000c1100000c11000093
:0801f8000c1100000c110000c5
:020000040000fa
:102a04000200fa00000f78001e007800010207009f
:102a14001e007800100890000000e000050032005d
:102a24001e007800900890001e007800010001004c
:102a34001a0037001e007800200890000000e00013
:102a4400140032001e007800000890000000e0002e
:102a54000a0032001e007800a00890001e007800d2
:102a6400010001001e007800000890008000e900c9
:102a74001e00780001089800080037001e00780046
:102a84000c0207001e0078008000eb00210898006b
:102a9400020037001e007800060207000080fa00da
:102aa400000006003600f800809fbe00829fbe0032
:102ab400849fbe00869fbe003200f8003400f800f8
:102ac40010002000a0018800100020009001880060
:102ad4000000fa0000832000c9ff07000080fa000c
:102ae4003400f9003200f9004f03be004f02be006b
:102af4004f01be004f00be003600f9000040060042
:102b04003600f800809fbe00829fbe00849fbe00f6
:102b1400869fbe003200f8003400f8001000200048
:102b2400a001880010002000900188000000fa0035
:102b340060842000b2ff07000080fa003400f9002e
:102b44003200f9004f03be004f02be004f01be0029
:102b54004f00be003600f900004006003600f800c1
:102b6400809fbe00829fbe00849fbe00869fbe00e1
:102b74003200f8003400f80010002000a0018800a2
:102b840010002000900188000000fa00c085200099
:102b94009bff07000080fa003400f9003200f900be
:102ba4004f03be004f02be004f01be004f00be00e7
:102bb4003600f900004006003600f800809fbe0091
:102bc400829fbe00849fbe00869fbe003200f80034
:102bd4003400f80010002000a0018800100020003c
:102be400900188000000fa002087200084ff07007d
:102bf4000080fa003400f9003200f9004f03be00ef
:102c04004f02be004f01be004f00be003600f90067
:102c1400004006003600f800809fbe00829fbe0080
:102c2400849fbe00869fbe003200f8003400f80086
:102c340010002000a00188001000200090018800ee
:102c44000000fa00808820006dff07000080fa0071
:102c54003400f9003200f9004f03be004f02be00f9
:102c64004f01be004f00be003600f90000400600d0
:102c74000000fa00b0002000801f78004700200008
:102c840036c0b3004509200044082000031020008a
:102c94002210200041102000008320003300070090
:102ca4008f87e900c0002000801f78008003eb00bc
:102cb40076c0b300450920004408200063102000ba
:102cc400c2102000011120006084200027000700aa
:102cd4008f87e900d0002000801f780017002000b3
:102ce40086c0b3004509200044082000a31020003a
:102cf400e210200021112000c08520001b000700e5
:102d04008f87e900e0002000801f78002700200062
:102d1400b6c0b300650920006408200043112000f8
:102d2400a2112000e1112000208720000f000700dd
:102d34008f87e900f0002000801f78003700200012
:102d4400c6c0b30065092000640820008311200078
:102d5400c211200001122000808820000300070017
:102d64008f87e9000080fa00000006001000fa00d6
:102d7400000f780011079800220798003307980085
:102d84004407980055079800464f98007707980025
:102d94001e0078009e009000010878001e00780054
:102da400ae009000110098001e007800be00900054
:102db400210098001e007800ce0090003100980099
:102dc4001e007800de009000410098001e0078008c
:102dd400ce489000214898001e007800fe00900024
:102de400610098001e007800ceb89700710098002a
:102df4001e0078008000eb00010898001e00780097
:102e04008000eb00110898001e0078008000eb00a1
:102e1400210898000080fa00000006000600fa006d
:102e2400881f7800000f7800120798002307980085
:102e340018c0b300d27b230063f823001e00900067
:102e4400ae009000fefd07000000e00001003c0021
:102e54000044eb000804e00069003a0018c0b30025
:102e6400d27b230063e823001e009000ae00900094
:102e7400f3fd07000000e00001003c000044eb000b
:102e84000804e000120032001e007800c4000700ad
:102e94001e0078001000780001032000010878006b
:102ea4001e007800100490000240220043772400a2
:102eb4001e009000ae00900053fe0700e2fd0700e4
:102ec400000078000000e900000c78004d00370095
:102ed40018c0b300d27b230063d023001e009000ef
:102ee400ae009000d6fd07000000e00001003c00a9
:102ef4000044eb000804e000120032001e007800d9
:102f0400a70007001e0078001000780001022000ce
:102f1400010878001e00780010049000024022008e
:102f2400438724001e009000ae00900036fe070088
:102f3400c5fd0700000078000000e900000c7800df
:102f44003000370018c0b300d27b230063b82300dd
:102f54001e009000ae009000b9fd07000000e000e4
:102f640001003c000044eb000804e00012003200c1
:102f74001e0078008a0007001e0078001000780008
:102f840001012000010878001e0078001004900060
:102f940002402200439f24001e009000ae009000d7
:102fa40019fe0700a8fd0700000078000000e900f2
:102fb400000c7800130037001e007800780007002a
:102fc4001e007800100078008000eb0001087800f3
:102fd4001e007800100490000240220043b7240031
:102fe4001e009000ae00900007fe070096fd07004b
:102ff400000078000000e900000c780001003700b0
:10300400000000004f0478000080fa000000060071
:103014000400fa00889fbe00100798001e0090006c
:103024001000780090007800000320000080600009
:103034004400de00000f78001e007800c200dd00ae
:10304400e0892000008040001004be001e009000b3
:1030540010009000100078008000eb0095fd070040
:103064000200200003f82300d6fc07000001be0084
:103074000800be00e4fd07004f04be000080fa0013
:10308400000006000600fa00000f780012079800fe
:10309400230798001e019000ae019000000020005c
:1030a40001f8230024fd07000001be001e00780083
:1030b4005aff07000080fa00000006000200fa0030
:1030c400000f78001e007800d1ff07000001be0049
:1030d4000000200001f8230017fd07000080fa001b
:1030e400000006000400fa00889fbe001007980044
:1030f4001e0090001000780090007800000320006b
:10310400008060004400de00000f78001e0078009c
:10311400c200dd00e0892000008040001004be00f1
:103124001e00900010009000100078008000eb005a
:1031340060fd07000200200003f82300a1fc070043
:103144000001be000800be00affd07004f04be0032
:103154000080fa00000006000200fa00000f780068
:103164001e0078002b0007001e007800200090004d
:103174008000eb00010878001e0078001000780041
:103184009e00780091007800110178000100280069
:1031940082807000010878000080fa0000000600b8
:1031a4000200fa00000f78001e007800100078007a
:1031b4009e0078009100780011017800f1ff27004b
:1031c40081006100010878000080fa000000060018
:1031d4000200fa00000f78001e0078003000900012
:1031e400900078001e007800204890000080fb00ca
:1031f400120020000010dd000080600000f0a70035
:103204000000ea000000ea004f00de000080fa003f
:10321400000006000200fa00000f78001e0078008b
:10322400300090009e007800b100900011017800f9
:103234009e007800a14890008180fb0013002000cc
:103244008118dd008180ea008100610001087800b6
:103254000080fa00000006000200fa00000f780067
:103264001e00780020009000100078000080fa0012
:10327400000006000200fa00000f78001e0078002b
:10328400400090009e007800c10090001101780079
:103294009e007800a14890008180fb00130020006c
:1032a4008118dd0082807000010878000080fa0037
:1032b400000006000200fa00000f78001e007800eb
:1032c400400090009e007800c10090001101780039
:1032d4009e007800a14890008180fb00130020002c
:1032e4008118dd008180ea00810061000108780016
:1032f4000080fa00000006000800fa00000f7800c1
:103304001207980023079800310798001e007800e0
:10331400e8ff07001e019000ae0190001e00780037
:10332400befe07001e0078008000eb000108980034
:103334001e007800be009000110898001e0078005e
:103344008000eb00210898001e007800c9ff0700e8
:103354001e00780080ff07000080fa0000000600cd
:103364000a00fa00000f780012079800230798005b
:1033740031079800440798001e007800cdff07002d
:103384001e019000ae0190001e007800a3fe07000d
:103394001e007800be009000010898001e0078000e
:1033a4008000eb00110898001e007800ce00900009
:1033b400210898001e007800aeff07001e00780068
:1033c40065ff07000080fa00000006000200fa0012
:1033d400000f78001e007800b6ff07001e0078007a
:1033e4008cff07001e0078006dff07001e007800a8
:1033f4008000eb00010898001e0078008000eb00bc
:10340400110898001e0078008000eb002108980045
:103414000080fa00000006000000fa0074c0b30047
:10342400634e2000822d2000a12d2000008020006a
:10343400200007000042eb00a34e2000822e200053
:10344400a12e2000808020001a00070014c0b300c1
:10345400a34e2000822e2000a12e200000812000f7
:1034640014000700f4c0b300434e2000022d2000d6
:10347400212d200080812000ad000700c4c0b300ce
:10348400434e2000022d2000212d20000082200028
:10349400a7000700c4c0b300234e2000822c2000e4
:1034a400a12c200080822000a10007000080fa00e7
:1034b400000006000a00fa00000f780011079800c7
:1034c4002207980033079800044f98001e007800e4
:1034d4009e009000010878001e007800ae00900065
:1034e400110098001e007800be0090002100980092
:1034f4001e0078008e489000614098001e007800fd
:10350400200090009e007800a10090001101780036
:103514009e007800e14090008180fb0013002000b1
:103524008118dd008180ea008100610001087800d3
:103534001e007800100078009e007800910078004a
:10354400110178009e007800e14090008180fb002a
:10355400130020008118dd008180ea0081006100f1
:10356400010878001e007800100090009e0078008a
:1035740091009000110178009e007800e1409000d5
:103584008180fb00130020008118dd008180ea00a7
:1035940081006100010878000080fa000000060044
:1035a4000200fa00000f78001e0078001000780076
:1035b4009e00780091007800110178009e00780048
:1035c400e14090008180fb00130020008118dd00a1
:1035d40082807000010878000080fa000000060074
:1035e4000200fa00000f78001e0078001000780036
:1035f4009e00780091007800110178009e00780008
:10360400e14090008180fb00130020008118dd0060
:103614008180ea0081006100010878000080fa00de
:10362400000006000200fa00000f78001e00780077
:10363400100078009e007800910078001101780055
:103644009e007800e14090008180fb001300200080
:103654008118dd0081006900010878000080fa000b
:10366400000006000400fa00000f7800110798001b
:103674001e0090000000e0000d0032001e007800e3
:10368400100078009e007800910078001101780005
:103694009e007800e14090008180fb001300200030
:1036a4008118dd0082807000010878000d00370069
:1036b4001e007800100078009e00780091007800c9
:1036c400110178009e007800e14090008180fb00a9
:1036d400130020008118dd008180ea008100610070
:1036e400010878000080fa00000006000200fa00d9
:1036f400000f78001e007800100078009000780019
:103704001e007800604090000080fb001200200042
:103714000010dd000080600000f0a7000000ea0057
:103724000000ea004f00de000080fa0000000600fe
:103734000a00fa00000f7800110798002207980089
:1037440033079800044f98001e0078009e009000f4
:10375400010878001e007800ae0090001100980067
:103764001e007800be009000210098001e00780022
:103774008e489000614098001e0078002000900060
:103784009e007800a1009000110178009e0078004e
:10379400e14090008180fb00130020008118dd00cf
:1037a4008180ea0081006100010878001e00780031
:1037b400100090009e0078009100900011017800a4
:1037c4009e007800e14090008180fb0013002000ff
:1037d4008118dd0082807000010878000080fa0002
:1037e400000006000200fa00000f78001e007800b6
:1037f40010007800900078001e007800604090006f
:103804000080fb00120020000010dd00008060003a
:1038140000f0a7000000ea000000ea004f00de000c
:103824000080fa00000006000000fa0000102000ea
:10383400203a8800f8fe07000dfd070000802000f4
:1038440057ff07000200200003f0230060842000db
:1038540072fd0700608420003ffe070060842000a2
:103864005bfe07000000e0000400320060842000da
:1038740068fe0700008120006aff07000082200024
:10388400d8ff070000f0a7000000ea000000e900ec
:103894004f00de00800078008080200071ff070068
:1038a40080822000cfff070000f0a7000000ea009c
:1038b4000000e9004f00de00800078000080200056
:0838c40068ff0700e5ff370073
:020000040000fa
:1038cc009e0800001000000082000000bd3786003a
:1038dc0033bd37000635bd0037863600bd37860050
:1038ec0037000000300800006e000000800000006f
:1038fc000008000030000000800000000000000004
:020000040000fa
:08390c000040da000000fe009b
:00000001FF
